:020000041000EA
:10000000D0DD8130510100105F0D0010970A001003
:1000100000000000000000000000000000000000E0
:10002000000000000000000000000000810E001031
:1000300000000000000000000F010010A9100010D7
:100040002113001049130010C9110010ED11001008
:100050004D0900106D010010FD080010990A0010F4
:1000600025080010610D001077010010D508001060
:100070004D1200107D0100107F0100108101001061
:100080008301001085010010870100108901001014
:100090008B0100108D0100108F01001091010010E4
:1000A00093010010950100109701001099010010B4
:1000B0009B0100109D0100109F010010A101001084
:1000C0000448854600F012FB0048004755670010C1
:1000D000C046C046D0DD8130084B19680868203022
:1000E00080F30988022080F31488BFF36F8F3FBC30
:1000F000AE4608BC04BC62B618470000040080305D
:10010000EFF3108072B6704780F310887047EFF3FA
:1001100009800E4B1A6820381060F0C044464D46E6
:1001200056465F46F0C008B572B60FF039FA62B6AF
:100130000CBC116808681030F0C8A046A946B24649
:10014000BB4680F309882038F0C818470400803087
:100150001448804714480047FEE7FEE7FEE7FEE745
:10016000FEE7FEE7FEE7FEE7FEE7FEE7FEE7FEE767
:10017000FEE7FEE7FEE7FEE7FEE7FEE7FEE7FEE757
:10018000FEE7FEE7FEE7FEE7FEE7FEE7FEE7FEE747
:10019000FEE7FEE7FEE7FEE7FEE7FEE7FEE7FEE737
:1001A000FEE70000CD100010C100001030B50B4676
:1001B000014600202022012409E00D46D5409D4241
:1001C00005D31D469540491B2546954040191546C7
:1001D000521E002DF1DC30BD70B5002425460028EC
:1001E00001DA01244042002901DA01254942FFF7E2
:1001F000DDFFAC4200D04042002C00D0494270BD2F
:100200000549064A08685043054A801808604008B6
:100210007047014908607047980180306D4EC641B3
:100220003930000010B5431A934209D28318881858
:1002300003E0401E01785B1E1970521EF9D210BDFA
:1002400003460B439B0703D009E008C9121F08C0EF
:10025000042AFAD203E00B780370401C491C521E9A
:10026000F9D210BDD2B201E00270401C491EFBD28F
:1002700070470022F6E710B513460A4604461946B1
:10028000FFF7F0FF204610BD30B5044600200346BE
:1002900000E05B1C934203D2E05CCD5C401BF8D0D5
:1002A00030BD0321001D401E037812021A43491E6F
:1002B000F9D510467047034603220870000A491C0E
:1002C000521EFAD518467047F0B507460846584002
:1002D00087B0C00F049048000E46590040084908F6
:1002E000BC1A884105D2384631461E4617460B4691
:1002F00002465800400810434DD0300D0390400591
:100300005900400D490D0590401A0290402873DABB
:1003100018030121000B090508430190049800927D
:10032000002806D01146019A4942002090410091D0
:100330000190029840210A1A0199009800F042F9B0
:1003400005460C466B4607CB00F05DF9C0197141BC
:10035000039A0E0D0023D71756401A467A401643CB
:1003600044D0049A002A2DD0029A012A039A15DC5F
:100370001205C01A914101263605001C7141D20FA9
:10038000059ED2070093019202962A46234600F06A
:100390005AF907B0F0BD38463146FAE71605234A48
:1003A0000F46B218C01AB74101210905001C4F4180
:1003B00000187F41114618187941E20F10436D195A
:1003C000644113E0E2076D0815436408C207144353
:1003D000039A01261205C01A91413605001C71418D
:1003E000CE07400830434908C01851412A462346E9
:1003F00000F01CF9CDE7FFE7049801224000C11787
:10040000121A00238B4104983146C417381AA141AF
:10041000EEE730B40124E407634030BC54E730B465
:100420000124E407614030BC4EE700000000E0FF1B
:10043000F0B51FB488B00B99099800244840099979
:10044000C00F490049080991C0070B990090490065
:1004500049080B9109990898A64608431CD00B99A6
:100460000A98084318D0099801244000420D48001A
:10047000410D099824050003000B204309900B98B7
:100480000003000B20430B9050181C494018002219
:1004900001901446104605E0002001460DB0F0BD65
:1004A000032801DA034600E003239C46C11A0AAE82
:1004B0000AE05F0008ADED5B4F00F75B7D4300276E
:1004C000AA187C41491C5B1E6145F2DD410004AB6A
:1004D0005A522104120C0A43240C401C0828DFDB6A
:1004E000019802900099704601910090059B049A32
:1004F0000799069800F0A7F8D0E700000DFCFFFF71
:100500000EB505490291002100910A460B46019162
:1005100000F099F803B000BD3304000070B5CD0FB2
:100520004A0009030123090B1B0519430B4BED0777
:100530000024520D9A4201DA002070BD074B34337B
:100540009A4203DC9A1A00F04DF802E0044951186F
:1005500088402C43F1D0404270BD0000FF030000F2
:10056000CDFBFFFFF0B51FB40646002082B0054664
:100570004024019100901BE0019922460F4630462D
:1005800000F030F8049A059B801A994110D3104668
:100590001946224600F016F8361A8F410197224676
:1005A00001200021009F00F00DF838184D41009007
:1005B0002046641E0028DFDC019B00982946324655
:1005C00007B0F0BD10B5202A04DB0146203A914067
:1005D000002010BD914020239C1A0346E34019439C
:1005E000904010BD10B5202A04DB0846203AD040C8
:1005F000002110BD0B46D340D0402024A21A9140C8
:100600000843194610BD10B5202A06DBCB17084653
:10061000203A1041C1170B4306E00B461341D0406E
:100620002024A21A91400843194610BD10B5002B92
:1006300008DA0024401C614192185B411A4301D141
:100640004008400010BDF0B51FB482B005460C0054
:1006500003D0084600F0F2FE02E000F0EFFE20308A
:100660000246009021462846FFF7ACFF049B059AFE
:1006700004460F4618431143084314D0184610434C
:100680001BD0009840210A1A18460599FFF7AAFFC7
:1006900005460E46009A05990498FFF793FF084314
:1006A00005D0012004E02046394607B0F0BD002007
:1006B000C11705430E432C43374300990E98630539
:1006C000401A7905E40A00220C43FD0A0A3002D5DB
:1006D00000200146E9E70105101969410C9C0D9DB8
:1006E00000196941FFF7A2FFDFE70000064C012572
:1006F000064E05E0E36807CC2B430C3C98471034CA
:10070000B442F7D3FFF7E0FC5C0201107C02011059
:1007100070B58C180578401C6B075B0F01D103780E
:10072000401C2A1106D10278401C03E006780E70A6
:10073000401C491C5B1EF9D12B0705D40023521E17
:100740000DD40B70491CFAE70378401CCB1A921C9D
:1007500003E01D780D70491C5B1C521EF9D5A142A7
:10076000D8D3002070BD00001CB500F0D7FC0EF0FF
:1007700087FC012112484C0200910190002322467F
:1007800010A113480FF006FA012802D111A000F0C1
:1007900045FE0B480221001D0091019000232246D6
:1007A00014A117480FF0F6F9012802D115A000F0A6
:1007B00035FE03480C3880680EF014FE1CBD0000A6
:1007C0008401803054657374315F5461736B000031
:1007D0009912001043726561746520546573743119
:1007E0005F5461736B207375636573732E2E2E0DCA
:1007F0000A00000054657374325F5461736B00002B
:10080000D5120010437265617465205465737432AB
:100810005F5461736B207375636573732E2E2E0A9C
:100820000A00000070470904091D4161704700B5C6
:100830000922D2069060D1600220106000F005F815
:100840000128FBD08020506000BD0920C006406810
:100850008007C00F70470920C0064068C007C00F5E
:10086000704700B50922D2069060D1600120106067
:10087000FFF7F1FF0128FBD04020506000BD806AE7
:100880008007C00F7047006BC007C00F7047006B38
:100890008007C00F7047000010B50C462168C16288
:1008A0002046163000F0D4FC07494020086020792B
:1008B000064A1168FF231B048007000E99430004B9
:1008C00001431160012010BD00E100E004E400E0FC
:1008D00001637047704701B502E00098401E009028
:1008E00000980028F9D108BD01B502E00098401E2B
:1008F000009000980028F9D108BD000038B54924BF
:10090000240601252046A562FFF7B9FF002816D06E
:10091000616A0C2041430A4809180D72E069486079
:10092000002000900748694600680FF0BAF8009868
:10093000002802D00449280748600220A06238BD80
:10094000BC0180304C01803000ED00E070B5012426
:1009500001218E07304600F056F8250604E0641C9D
:10096000AC4201D3002404E0304600F050F8C00748
:10097000F5D00448002C02D00121017070BD002187
:10098000017070BD780180300A680B794979002BBD
:1009900004D0012B04D0022B04D004E0426102E019
:1009A000026100E0826101290FD0022917D00329DA
:1009B0001FD0042908D1016A11430162016B114360
:1009C0000163816A114381627047016A11430162C8
:1009D000C16A1143C162416B114341637047016AAF
:1009E00011430162C16A1143C162016B114301638A
:1009F0007047016A11430162816A11438162416B50
:100A0000114341637047826B0A43826370470068F9
:100A1000704742688A434260704742680A434260B6
:100A20007047006A704770B505460C46287F00285D
:100A300011D10622A11D2846FFF7F4FB21462846C6
:100A400004221A310C30FFF7EDFB2034A078E17856
:100A500000020843686170BD07200007006AC007F4
:100A6000C00F70477FB501240294002569460D73BD
:100A700003204873A60702A93046FFF785FF04202C
:100A800000F000FD0220009069460C714D71304667
:100A9000FFF77AFF7FBDFEE710B5074C6069074896
:100AA0004188491C89B24180C80602D104A000F0E7
:100AB000B5FC0120206110BD00A0005078018030FD
:100AC000454550524F4D2069727120636E74203D30
:100AD00020256421212121200A00000000B500F01A
:100AE00045F9FF206121F3300906086000F039F96B
:100AF00000BDF0B503460D46164600F037F919461D
:100B0000122000F098F800281ED101277F02FF2054
:100B10000FF000FAFE28FAD10024FF200FF0FAF9B6
:100B200028706D1C641CA4B2BC42F6D3761E360637
:100B3000360EECD100210C2000F07DF800F011F908
:100B4000FF200FF0E7F90020F0BD30B5002500F0E0
:100B500066F900F006F90024FF200FF0DBF90A2007
:100B6000FFF7C2FE641CE4B20A2CF5D3002108464C
:100B700000F061F86D1CEDB20A2D01D9012030BDE5
:100B80000128E8D10024FF25AB352946082000F0D4
:100B900052F802460A20FFF7A7FE641CE4B2012ABD
:100BA000F3D1FF200FF0B6F9FF200FF0B3F9FF20CB
:100BB0000FF0B0F9FF200FF0ADF900F0D2F8FF20F0
:100BC0000FF0A8F90125AD070021372000F033F818
:100BD0000128D4D10A20FFF787FE2946292000F0FA
:100BE0002AF802460A20FFF77FFE642C01D910463E
:100BF00030BD002AE8D100213A2000F01CF800287E
:100C0000F6D1FF200FF086F9FF200FF083F9FF20C7
:100C10000FF080F9FF200FF07DF900F0A2F8FF201F
:100C20000FF078F901214902102000F004F800F0DB
:100C3000F1F8002030BD70B506460D46002400F0E6
:100C400095F80A20FFF750FE3046402108430FF088
:100C500061F9280E0FF05EF92802000E0FF05AF924
:100C60002804000E0FF056F9E8B20FF053F9002EE9
:100C700005D0082E07D0FF200FF04CF90FE095208B
:100C80000FF048F90BE087200FF044F907E00A2045
:100C9000FFF72AFE2146641CE4B2142905D8FF2080
:100CA0000FF038F90246FF28F1D0104670BDF0B5BC
:100CB00003460D46164600F059F819461920FFF76D
:100CC000BAFF002829D101277F02FF200FF022F967
:100CD000FF200FF01FF9FF200FF01CF9FC200FF090
:100CE00019F9002428786D1C0FF014F9641CA4B2C3
:100CF000BC42F7D3FF200FF00DF9FF200FF00AF9E7
:100D0000FF200FF007F90246FF2AF9D0D006C00EE7
:100D1000052803D000F025F81046F0BD00F02CF8AF
:100D2000012811D0761E3606360ECED1FD200FF0EA
:100D3000F1F800F021F800280AD000F012F8FF20A6
:100D40000FF0E8F80120F0BD00F00BF80120F0BD35
:100D500000F007F8FF200FF0DDF83046F0BDFEE7A9
:100D60007047002061210906086170470020C043D8
:100D7000612109060861704730B50024074DFF2046
:100D80000FF0C8F8641CA4B2AC4201D1012030BD00
:100D9000FF28F4D10FF0BEF8002030BDFEFF0000A8
:100DA00070B5FF20013000F01DF89F2000F05AF8C8
:100DB00000F03BF8050400F038F804022C4300F082
:100DC00034F82043054600F003F8284670BD0000C3
:100DD00003480169FF22120291430161704700003C
:100DE00000B0005002490A6902430A6170470000DE
:100DF00000B00050024880680006C00F7047000035
:100E000000B0005002488068C006C00F7047000064
:100E100000B0005002206121090608607047FF20E1
:100E2000F330612109060860704710B5FFF7EAFF4B
:100E30000128FBD000F00EF8FFF7DCFF0128FBD003
:100E400000F002F810BD000001480068C0B2704711
:100E500000B0005002488168402211438160704711
:100E600000B0005010B500F005F8FFF7CBFF0128E7
:100E7000FBD010BD014948607047000000B0005031
:100E8000704700B50146492212061046FFF7FBFCE9
:100E90000128FAD00820486100BD10B5029C89B233
:100EA000016091B20122D20311434160C360A1B23B
:100EB00001610121416110BDF3B583B00446207F7B
:100EC000002875D12078E778000607436078A1787C
:100ED00000040902084307432079050660790004ED
:100EE0000543A079617A00060143E079227A000483
:100EF000120210430143A07AE27A00061204104362
:100F00008446207BE27B00060243607BA37B0004D7
:100F10001B0218430243207CE37C00060343607CF1
:100F2000A67C00043602304303430498060460693B
:100F30000643072000070760456081606146C16085
:100F400043610261866101202077042000F0A7F848
:100F5000E17AA07A627A019000920291237AE27992
:100F6000A17914A000F05AFAE07C0090A37C627C86
:100F7000217C18A000F052FA1CA0049900F04EFA4F
:100F800060792179E278029000920191A3786278E9
:100F900021781AA000F042FAE07B0090A37B627BEC
:100FA000217B1EA000F03AFA22A0616900F036FA17
:100FB00005B0F0BDC8EDBACB4D414320A3BA202502
:100FC00078202578202578202578202578202578F8
:100FD0000A000000C8EDBACB49502020A3BA202552
:100FE000642E25642E25642E25640A00C8EDBACB34
:100FF000504F5254A3BA2025640A0A00C4BFB1EA74
:101000004D414320A3BA202578202578202578203B
:1010100025782025782025780A000000C4BFB1EA91
:1010200049502020A3BA2025642E25642E25642E45
:1010300025640A00C4BFB1EA504F5254A3BA202518
:10104000640A00008161704730B5039D09041404EF
:101050002A040160012149040C4344608360026159
:101060000221416130BD70B5044649252D06284650
:10107000FFF70DFC0128FAD0207F012802D10420BF
:1010800000F00DF870BD00B5007F012806D10620E4
:1010900000F005F8FFF7E0FC0128FBD000BD0721B8
:1010A000090708627047000010B5FFF729F80446E9
:1010B0000EF0B4FD002803D001200349000748606A
:1010C0002046FFF721F810BD00ED00E030B51049D3
:1010D0000E48086000210006016041600161416125
:1010E0008161C161016241628162C16201634163E8
:1010F00081630020074B084C8200D5182960121923
:101100001160401CFF28F7DD30BD00004059730717
:101110000000803000040040000800400EB50021AF
:1011200008460DF071F91A49184808601948091D58
:1011300008601948091D0860154B00221748184916
:1011400008330092019102901A1F111F154806F0F2
:10115000DDFD144806F06AFF12482030407B40074E
:1011600003D5104806F08EFF02E00E4806F064FF3B
:101170000C484068010E009101020B0E01040A0E9A
:10118000C1B209A000F04AF90EBD0000C0A80002DB
:1011900060018030FFFFFF00C0A8000111E50010D2
:1011A0007D2C0010F8C381300A0DB1BEB5D849506E
:1011B000B5D8D6B7CAC73A25642E25642E25642E25
:1011C00025640D0A0000000010B505242407204600
:1011D00000F010F8002806D003494A68521C4A6003
:1011E000204600F004F810BD7801803070470121DE
:1011F000C1607047C068C0B27047002202604260A0
:101200008260C2600A6842600A68826002680123E4
:101210001A4302600A79012A03D1026808231A439B
:1012200002604B790222002B02D1036893430360D2
:101230004979012906D0022903D10168042211430A
:1012400001607047016811430160704770470000FA
:1012500010B50E4935220A600D4A0A6109210D4B6D
:10126000C901196242798178120611430279C47862
:1012700012042402224311431963417800780906BD
:101280000004014303484030016010BD00C000501D
:101290001772000000C100500126B6070025FF2785
:1012A0000B4CF5370BE002213046FFF7B6FB06E0AA
:1012B000042804D102213046FFF7ABFB65613846B4
:1012C0000EF076F86069401C60610228F0D1EAE710
:1012D000780180300025FF26064CF53600E0A56138
:1012E00030460EF065F8A169491CA1610429F7D1C7
:1012F000F5E70000780180301CB5084800680090D0
:101300000020694648710120087105200007FFF799
:1013100074FF022000F0B6F81CBD00000000803011
:1013200010B5084C204600F013F8002809D02046DC
:1013300000F00BF8204600F04DF80146204600F082
:101340004FF810BD0040005070470221C160704747
:10135000C0688007C00F704710B504460022002007
:1013600020606060A060E06020610B79012B00D1FB
:1013700001224B79012B01D102231A438B79012BD6
:1013800001D104231A43CB79012B01D108231A433D
:101390000B7A012B01D110231A434B7A012B01D177
:1013A00020231A438B7A012B01D140231A43A060DA
:1013B000A260074809680068FEF7F8FE20616068CF
:1013C0000007800F01D0002010BD012010BD0000DB
:1013D0000000803041688907FCD50068C0B27047C2
:1013E0004268D207FCD10160704700000EB50120B1
:1013F0006A461071507100219171D0711172507252
:101400009172E1204002009069460348FFF7A4FF73
:10141000002000F037F80EBD004000500FB410B5AA
:1014200003A9044B044A029800F048F810BC08BC19
:1014300004B01847353300109C0180302021020C85
:1014400001D010211046020A01D0104608390209C5
:1014500001D01046091F820801D01046891E42089B
:1014600001D0881E7047081A704730B47446641E55
:101470002578641CAB4200D21D46635D5B00E31817
:1014800030BC1847002805DBC106C90E0120884082
:10149000014908607047000000E100E002E008C870
:1014A000121F08C1002AFAD170477047002001E0DE
:1014B00001C1121F002AFBD170470000FFB58FB099
:1014C0000F460446002606E025280AD0129A1199F4
:1014D0009047641C761C20780028F5D1304613B064
:1014E000F0BD002501219F4A009500E00543641CE2
:1014F00023780846203B98401042F7D120782E28C8
:1015000015D1042005436078641C2A280AD101CF34
:10151000641C00900BE000990A22514330394018B6
:10152000641C00902078014630390929F3D92078CD
:101530006C280ED004DC4C2813D06A2812D104E0A9
:1015400074280ED07A280DD10BE001204005054308
:1015500007E00121090562780D43824201D16D182F
:10156000641C641C2078692849D008DC0028B5D0A8
:1015700058286CD063280FD0642808D13FE0702829
:101580006AD0732811D075285FD078285FD0129A5E
:1015900011999047761CE3E038786946087200207C
:1015A000487202A80190012003E0386801900020F1
:1015B000C0433F1D69070CD5002500E06D1C009954
:1015C0008D420FDA8542F9DB0199495D0029F5D199
:1015D00008E0002500E06D1C8542FCDB0199495DB7
:1015E0000029F8D1761907E0019801990078491C83
:1015F0000191129A119990476D1EF5D2B0E00A2020
:10160000029000216802400F039102280CD001CF04
:10161000C117844600290DDA60460A46404200217F
:10162000914184462D2008E0FF1DFF08FF0003CFF5
:101630008446EFE7280504D52B206A461074012064
:101640003DE0E8073BD02020F7E70A2000E010202B
:1016500000210391029007E0102002900021042055
:1016600005430820039100906802400F022811D022
:1016700001CF0021844600200D90280720D5207836
:10168000864670280CD0029A1020039B42401A43D1
:101690000CD015E0FF1DFF08FF0003CF8446EAE7EA
:1016A00040206A46107401200D900CE0604608430B
:1016B00006D030206A4610747046507402200D9097
:1016C0002078582804D028A001900DA80E900DE095
:1016D0002AA0F9E76046039B029AFEF743FF019BAD
:1016E00084469B5C0E9A521E0E921370604608430D
:1016F000F0D10E9805A9081A20300190680701D48E
:101700000120009000990198814201DD081A00E053
:1017100000200025009006E004A8129A405D11996F
:1017200090476D1C761C0D988542F5DB04E0129AFB
:10173000302011999047761C0099481E009000298E
:10174000F5DC08E00E980E990078491C0E91129A6B
:1017500011999047761C0199481E01900029F1DCEF
:10176000641CB8E60928010030313233343536378D
:1017700038396162636465660000000030313233DD
:10178000343536373839414243444546000000007D
:10179000F3B581B006460024154D08F0D8FA2101B2
:1017A0006958002907D008F0FBFA641C082CF4DB08
:1017B0000020C043FEBD2701EE5108F0F1FA0020E1
:1017C0007D196860A87B002802D00AA007F08EFA75
:1017D0000021298130780009012804D00120688186
:1017E000A9812046FEBD02980028F8D00120F6E726
:1017F0000C878030736F636B6574735B695D2E73E8
:10180000656C6563745F77616974696E67203D3DDF
:1018100020300000F8B504460020E070401EE06271
:10182000204605F0C7FC002801D00420F8BD24485C
:10183000201803F068FC054626462036307C214FF0
:10184000EB2803D0E92801D0E82833D1BD4207D1E5
:10185000204608221CA1823005F02EF8002819D05D
:1018600020463B3003F04FFC411E084222D10121AB
:10187000490288421ED388421CD8707F002819D0A4
:10188000411E084216D14020005D012804D00228E4
:1018900002D00FE00020F8BD2046413003F033FCB9
:1018A000002807D02046463003F02DFC002801D048
:1018B0000020F8BDBD4201D10220F8BD0320F8BDD3
:1018C0002E02000055AA0000464154333220202049
:1018D0000000000000E0401C0278002A01D08A428B
:1018E000F9D1007870470000F8B5044626690C214C
:1018F000304648430E4945186F6808583946FEF788
:10190000B8FC3946204600F0F9FB00276F602F72C3
:101910006F72492031460006FEF785FF701CA168F2
:10192000814203DD2069401C2061F8BD2761F8BDBC
:10193000BC018030891E4269921E8A4201D8002073
:101940007047826A4089484310187047F3B581B0E8
:101950000F4601980568002F07D03946019801F01D
:1019600051FD022809D20120FEBDEE68002E02D0F2
:101970006869B04207D8012605E0411CF4D06969C6
:101980008142F1D83E46286900281CD00024BE427E
:1019900016D1741C6869A04200D80224214601981F
:1019A00001F030FD0128DFD0411CDDD0002807D038
:1019B000E868022803D36969814200D906460024F9
:1019C000002C02D019E00020FEBD3446641C68697A
:1019D000A04204D80224022E01D20020FEBD2146DE
:1019E000019801F00FFD002807D00128F6D0411C16
:1019F000F4D0B442EAD10020FEBD0026F6433246C0
:101A00002146284607F0E2FD002806D1002F04D029
:101A100022463946284607F0D9FD002804D001287F
:101A20000FD001242046FEBDEC6069692869891E3B
:101A3000884201D8401E2861287901210843287175
:101A4000F0E73446EEE70000F3B583B00499096887
:101A50000091074620370B222021384605F02CF94B
:101A600000252E4608200190009930460C5C761C1B
:101A7000202C17D92F2C0FD05C2C0DD02E2C02D05F
:101A8000019885421CD301980B2801D02E2C13D02D
:101A9000062005B0F0BD761C0098805D2F28FAD096
:101AA0005C28F8D00098811904980160002D34D08A
:101AB0003878E52833D034E008250B200190D3E7AF
:101AC000204600F03FF8002815D030460099761CDB
:101AD000085C0290029800F042F8002803D00198B8
:101AE000401E854201D30620D3E7681C7C5502992D
:101AF000451C3954B8E721460EA0FFF7EBFE00283D
:101B000001D00620C5E720466138192801D8203CBD
:101B1000E4B228466D1C3C54A6E70620B9E7052030
:101B20003870202C01D8042000E00020F87200203A
:101B3000AFE70000222A2B2C3A3B3C3D3E3F5B5D49
:101B40007C7F0000812808D39F2801D8012070479E
:101B5000E0381C2801D80120704700207047402839
:101B600008D37E2801D80120704780387C2801D80E
:101B70000120704700207047F8B505460E462F68D3
:101B80000021284600F0FDF8002813D10024384633
:101B9000A96905F00FFB00280CD1E9690978E5294E
:101BA0000CD000290AD000240121284600F066F854
:101BB0000028ECD0042800D10720F8BD641CB442F2
:101BC000F8D0F1E7F8B505460C46284608F064F869
:101BD000002801D00120F8BD21462846FFF7AAFEC3
:101BE0000646EE62284601223030520200210446A9
:101BF00005F062F800940127002400E0E4196889E8
:101C0000A04207D9321968783B46009900F041F9A3
:101C10000028F3D06889A04201D00120F8BD00203F
:101C2000F8BD70B5044626680021204600F0A9F8EA
:101C3000002820D13046A16905F0BCFA05462800ED
:101C400018D1E0690178002916D0C17A8906890E79
:101C5000A171C17A090706D421460B22203104F074
:101C60002BFE002806D00021204600F007F805468C
:101C70002800DFD0284670BD0425FBE7F3B581B00E
:101C8000044627682669203601204005864201D394
:101C90000020A061A069002802D0F10502D048E030
:101CA0000420FEBD401CA061616900290CD07A8926
:101CB000700A521E10423CD1204601F0A3FB05469B
:101CC000012D09D80220FEBD39897009884230D320
:101CD0000020A0610420FEBD681C18D07869A842CD
:101CE00021D80298002814D020466169FFF72EFE03
:101CF0000546002D11D0012D11D0681C11D02946A8
:101D00003846FFF75FFF00280DD00120FEBD0120FF
:101D1000FEBD0020A0610420FEBD0720FEBD022004
:101D2000FEBD0120FEBD656129463846FFF702FE73
:101D3000A0612661F005C00DC0193030E0610020BF
:101D4000FEBD70B50446266801212046FFF714FF4A
:101D50000546280013D13046A16905F02BFA054647
:101D600028000CD120220021E06904F0A5FF2146C3
:101D70000B222031E06904F0ABFD0120F070284611
:101D800070BDF8B506460D4637680120400585420E
:101D900001D2E80601D00220F8BD3561B468002CFC
:101DA00003D13878032800D37C6A002C03D07889CB
:101DB000400200901AE039896809884201D3022064
:101DC000F8BD786AB06119E02146304601F01AFB8F
:101DD0000446601C06D0022C02D37869A04203D8C6
:101DE0000220F8BD0120F8BD00982D1A0098854208
:101DF000EAD221463846FFF79DFDB0617461B069B3
:101E0000002809D0690A4018B061E805C00DC01962
:101E10003030F0610020F8BD0220F8BD10B5002878
:101E200001D0012010BDFEF759FEFEF78EFE0028FE
:101E3000F8D0012010BD0000002801D00420704718
:101E4000012905D0022907D003290AD000207047B4
:101E500006481060002070470120400210800020DA
:101E600070470120108000207047000000B0470735
:101E700010B51446002801D0012010BDDAB220466A
:101E8000FEF737FE10BD01460120002900D10020D9
:101E9000704710B51446002801D0012010BDDAB2F9
:101EA0002046FEF704FF10BD70B505460C46A0079E
:101EB00002D006A006F01AFF07F049FFA9680968DA
:101EC0002160A9680C6007F06BFF70BD6D656D70D7
:101ED0005F667265653A206D656D2070726F706522
:101EE000726C7920616C69676E65640070B5044638
:101EF00007F02DFF0546A0680468002C0BD0216870
:101F00000160A00702D006A006F0F0FE284607F008
:101F100047FF204670BD284607F042FF002070BDF5
:101F20006D656D705F6D616C6C6F633A206D656D92
:101F3000702070726F7065726C7920616C69676E69
:101F400065640000F3B583B00446002C02D13DA0C7
:101F500006F0CCFE07F0FBFE014600266660049802
:101F6000207220462030827B01231A430746827369
:101F700065786670084607F013FF636B002B03D08B
:101F80000022042120469847636B002B03D00022D7
:101F9000114620469847636B002B03D00022022194
:101FA00020469847049804F00DF800902046103021
:101FB000029007F054FF002803D00099029807F020
:101FC00040FF20461430019007F049FF002803D05D
:101FD0000099019807F035FF012D0BD0042D09D091
:101FE000032D07D0206B002802D01AA006F07EFE39
:101FF00005B0F0BDB87B4107C90FFB221040B87394
:102000000029F5D1206B002802D119A006F06EFE40
:10201000042D0BD0216B04980871206B05680C35DA
:10202000284607F0B1FF002803D005E0206B0671B9
:10203000F3E716A006F05AFE2663284607F086FF4F
:10204000D6E70000636F6E6E20213D204E554C4C4C
:1020500000000000636F6E6E2D3E63757272656ED8
:10206000745F6D7367203D3D204E554C4C00000061
:10207000636F6E6E2D3E63757272656E745F6D7305
:102080006720213D204E554C4C000000696E617662
:102090006C6964206F705F636F6D706C65746564EC
:1020A0005F73656D00000000002802DC41421129C9
:1020B00001DB0520704702498000081A006870475C
:1020C00058FF001010B519210B4889010160022149
:1020D00041602021816000210161C1604924240602
:1020E0002046FEF7F5FB00F06FF800F01DF8042124
:1020F0002046FEF7EDFB10BD3C03803070B5044672
:102100000D46492636063046FEF7BDFB0128FAD0BB
:1021100020690C214843034908582946FEF787FBEC
:1021200070BD0000BC018030F8B500240E4E0025C3
:1021300021461F2C16D0621C0C4823031B18204676
:102140000C27784333508019456005724572192079
:102150008001009049200006FEF79FFE641C202CA1
:10216000E6DBF8BD0022E7E7BC018030002000304C
:1021700070B5044649252D062846FEF784FB012844
:10218000FAD020690C21044A484381184968105844
:10219000FEF767FB70BD0000BC01803070B50446DF
:1021A0000D46492636063046FEF76DFB0128FAD06B
:1021B000E0680C214843034908582946FEF737FBDD
:1021C00070BD0000A4018030F8B500240F4E00253A
:1021D0002146012C17D0621C0320230300071B1883
:1021E00020460C27784333508019456005724572AC
:1021F00019208001009049200006FEF725FF641C8D
:10220000022CE5DBF8BD0022E6E70000A4018030E7
:10221000F3B581B00C4649273F063846FEF701FC6E
:10222000104EF060192189018C4219DC0C214843C1
:102230000D4D224628580199FDF7F4FFF0680C2156
:1022400048434019446021463846FEF7FBFE2146CC
:102250003046FFF7A3FF3846FEF713FE0120FEBD10
:102260000020FEBD3C038030A401803070B50546DF
:102270000024084E182060438019017D002905D0F4
:102280008068A84202D1204600F0F4F8641C0A2CB1
:10229000F0DB70BD94C28130F7B588B00A2006909B
:1022A00005900A27002404900020039002900190DA
:1022B000204618214843474907904618357D0A2F84
:1022C00001D1002D1AD0002D24D0012D04D0022DD3
:1022D00002D241A006F00AFD0898002810D0089804
:1022E0007168006888420BD10A98002803D0B16851
:1022F0000A98814204D120460BB0F0BD274609E080
:10230000012D12D0022D05D3708A0199884201D384
:1023100005940190641C24B20A2CC9DB099881073A
:102320003D48E9D40A2F13D015E02A4807994058B0
:10233000002806D0708A03998842EBD30494039056
:10234000E8E7708A02998842E4D306940290E1E7B4
:102350000999C907D0D00A2F01DA3C461EE0059939
:102360000A290ADA059C18201A49604308580028EF
:102370000CD02AA006F0BAFC08E006990A2901DA76
:10238000069C03E004990A29B6DA049C0A2C02DBB5
:1023900028A006F0ABFC204600F06CF80A2C02DB0B
:1023A00024A006F0A3FC20461821484309494518FB
:1023B000287D002802D024A006F098FC0898002868
:1023C00002D0089800686860002068820A98A860B7
:1023D000204691E794C281307374617465203D3D5D
:1023E000204554484152505F53544154455F504535
:1023F0004E44494E47207C7C207374617465203EB6
:102400003D204554484152505F53544154455F5319
:102410005441424C45000000FFFFFFFF6172705FB6
:102420007461626C655B695D2E71203D3D204E5587
:102430004C4C000069203C204152505F5441424CBA
:10244000455F53495A4500006172705F7461626C68
:10245000655B695D2E7374617465203D3D20455454
:10246000484152505F53544154455F454D50545973
:102470000000000070B504461820064D444328595A
:102480000026002802D006F03DF92E51601906758D
:1024900070BD000094C28130F0B587B007460D468C
:1024A000002D0BD07C686078217800020843C11FA2
:1024B000F93911D1207906280ED104E028A006F0C0
:1024C00015FC07B0F0BD6079042805D1E078A1784B
:1024D00000020843082803D0384606F013F9F0E755
:1024E000214604220E3105A8FDF79CFE2146042258
:1024F000183104A8FDF796FE6868002804D00499F6
:10250000814203D1012602E0002600E00026002ED1
:1025100001D0012300E002232246083205A9284603
:10252000069200F0ABFAE079A17900020843FF3887
:10253000013810D1002E0ED005AB0222069802936E
:10254000291D03922B46009101902633024619461D
:10255000284600F0C9F9384606F0D4F8B1E7000083
:102560006E6574696620213D204E554C4C0000007C
:10257000FEB504460E461546002C02D13CA006F0DE
:10258000B5FB002E02D13EA006F0B0FB280002D120
:102590003EA006F0ABFB2146286801F0B5FD0028FF
:1025A00001D03E4B39E028680106090F0E2924D0DE
:1025B000A168636802460A400B409A4208D0384935
:1025C00080B2884204D0E068002830D025460C351F
:1025D000344B18201A78344950434018077D022F95
:1025E00028D38768A74225D12F684068874221D128
:1025F0003146204600F05AF8FEBD012069460871B8
:10260000002048715E20887168784006400EC871CD
:10261000A8780872E878487201AB0120C00222460F
:10262000009026323146204600F0E2FAFEBD03203B
:10263000C043FEBD0022182050434018077D022FE2
:102640000CD38768A74209D12F684068874205D11B
:102650001A703146204600F029F8FEBD521CD2B255
:102660000A2AE8D332462946204600F075F8FEBD16
:102670006E6574696620213D204E554C4C0000006B
:102680007120213D204E554C4C0000006970616462
:10269000647220213D204E554C4C0000F800011082
:1026A000A9FE00003001803094C28130F7B582B0BD
:1026B0000746154618201B4968434418207D022808
:1026C00002D219A006F012FB18214D431549207DB6
:1026D0006D180C35022819D1608AFF211E3103269E
:1026E000884207D3211D384600F080F900280DD11B
:1026F00026750BE0FF210F31884207D32A46211DA2
:10270000384600F07BF9002800D126750120C00270
:102710003A4600902B4626323846039900F068FA74
:1027200005B0F0BD94C281306172705F7461626CFB
:10273000655B6172705F6964785D2E737461746546
:10274000203E3D204554484152505F53544154452A
:102750005F535441424C4500F7B584B01646049887
:10276000263002900024E44300270598049900686D
:1027700001F0CAFC002815D1059800680106090F70
:102780000E290FD0059900290CD000280AD001216C
:10279000049A0598FFF780FD0546002D05DA68B21A
:1027A00007B0F0BD0F20C043FAE77F2D02D337A05A
:1027B00006F09CFAE8B20190019818214843374985
:1027C00003904518287D002804D101270120287591
:1027D0000498A860287D012804D0022802D230A0E5
:1027E00006F084FA002F01D1002E06D10599049835
:1027F00000F0FCF80446002E12D0287D274F022856
:1028000010D33149019808700120C0022B46009076
:102810000C333146029A049800F0EAF9044633E09A
:102820002046BDE701282FD1002534460FE06089FE
:102830002189884205D12068002802D023A006F013
:1028400055FA207B400601D5012502E02468002CC2
:10285000EDD1002D07D005213246C9010E2005F02B
:1028600015FE064602E0304606F062F8002E09D05A
:1028700003983858002801D005F044FF03983E50D3
:10288000002401E00024E443204689E77479706560
:10289000206F766572666C6F7700000094C281309D
:1028A0006172705F7461626C655B695D2E737461E7
:1028B0007465203D3D2050454E44494E47206F727F
:1028C00020535441424C4500300180306E6F2070DF
:1028D00061636B65742071756575657320616C6CDF
:1028E0006F77656421000000FFB581B006460027C0
:1028F000002E02D12AA006F0F9F90522D2011C21EE
:102900000E2005F023FC0546280046D068891C28C7
:1029100002D227A006F0EAF96C680D9802F0A2FD39
:10292000A071000AE0712C20805D062802D02D489D
:1029300006F0DCF92046062208300499FDF772FC07
:102940002046062212300B99FDF76CFC204604222B
:102950000E300A99FDF766FC2046042218300C99C7
:10296000FDF760FCFF2001302070000A6070082035
:10297000A0700020E07006202071042060711A48C9
:10298000009029463046039B029A00F031F9284610
:1029900005F0B8FE384605B0F0BD0020C043FAE7A8
:1029A0006E6574696620213D204E554C4C00000038
:1029B000636865636B207468617420666972737400
:1029C00020706275662063616E20686F6C6420738E
:1029D0007472756374206574686172705F68647284
:1029E00000000000D40101100608000010B5024AE2
:1029F00000F004F810BD0000F80001107FB5031DC1
:102A000000930124044D0291223301950394194649
:102A1000FFF76AFF04B070BDFE00011070B500241E
:102A2000154D182060434219117D002920D0508A8D
:102A3000401C80B25082FF232D33984203D20129DB
:102A400005D1052803D32046FFF714FD10E0032924
:102A500004D0042905D0012906D009E0042010750E
:102A600006E00220107503E0111D9068FFF7BEFF1D
:102A7000641C0A2CD5DB70BD94C28130FFB581B0D7
:102A800005460C461E462C20405D062802D021A09B
:102A900006F02CF9002C17D02068002814D0294605
:102AA00001F032FB00280FD120780006000F0E281D
:102AB0000AD02A4631462046FFF7EEFB0646300094
:102AC00005D570B205B0F0BD0F20C043FAE718205D
:102AD000194F02214643F4192175A56020460C3098
:102AE00006220399FDF79EFB00216182BC59002C50
:102AF0000DD0B9510120C00200902A46263221464D
:102B00002846039B00F074F8204605F0FBFD0020EA
:102B1000D8E700006E657469662D3E68776164646D
:102B2000725F6C656E203D3D204554485F485741BB
:102B30004444525F4C454E0094C28130F3B581B09D
:102B400004460E2760890E2836D9029DE07B203589
:102B5000002802D1287C401CE0736068417B027B26
:102B60000E0216430178CA0717D0012906D00622A3
:102B70001E49FDF789FB00280BD00EE041780029A3
:102B80000BD180785E2808D1607B102108436073E8
:102B900003E0607B082108436073082E11D0C12038
:102BA000C000864208D1687B000705D5394620461B
:102BB00005F0DAFE002812D0204605F0A3FD002023
:102BC000FEBD687B0007F7D53946204605F0CCFEF0
:102BD0000028F1D12046029901F0C4FB03E0204611
:102BE0000299FFF759FC0020FEBD0000F80001101B
:102BF000FFB581B005460E460A9802F033FC074641
:102C00000E21304605F060FA002803D00120C043B1
:102C100005B0F0BD7468380A277360730622204639
:102C20000499FDF7FFFA0622A01D0399FDF7FAFAB1
:102C30002C20405D062802D003A006F057F8AA69B0
:102C4000314628469047E3E76E657469662D3E6815
:102C500077616464725F6C656E206D757374206259
:102C600065203620666F722065746865726E6574C3
:102C70005F6F7574707574210000000070B50446B4
:102C8000042003F02BFF0546002D02D0002C06D0B7
:102C900008E00CA0FEF7C2FB0020C04370BD11A0ED
:102CA00006F024F8E5615A2120462030817347213F
:102CB000C173104860611048A061204602F02AFAF2
:102CC000002070BD65746865726E657469665F69C1
:102CD0006E69743A206F7574206F66206D656D6F34
:102CE00072790A006E6574696620213D204E554C4C
:102CF0004C00000071250010995200100546002775
:102D00000F4EFF4300233A46194630680CF0FCFC96
:102D10000128F7D1284602F083FA04462000F1D0BA
:102D20002A6929469047002803D0204605F0EAFC8E
:102D3000E8E700231A46194630680CF0E5FCE9E79D
:102D40004C018030F8B504460F46002C0DD0A66922
:102D5000002E0DDA06F0FBFFA669002E06DA002F22
:102D600001D1761EA66107F01BF8F8BD07F018F830
:102D7000304600F0C7FB04462000F6D0012506F0DF
:102D8000E6FF009001203B00FEF76FFB05040C11ED
:102D9000171B1D002089401C00B22081012815DD71
:102DA000002513E02089401E208100250EE0618966
:102DB000002900D00025608108E000206081002506
:102DC00004E0A08102E014A005F090FFA07B0028A1
:102DD0001ED0002D1CD00820205E002801DD01251A
:102DE00000E000256089002801D0012700E00027CD
:102DF000A089002801D0012400E00024009806F0FA
:102E0000CFFF23463A462946304606F035FEF8BD48
:102E1000009806F0C5FFF8BD756E6B6E6F776E207B
:102E20006576656E7400000038B50446204600F0F3
:102E3000C7F9002807D1694620460CF0F3FB0028AB
:102E400001D10021216038BD17B581B01446029828
:102E50000090684600F036FB002802DA0B2004B030
:102E600010BD0B4A810050580023002800D0037089
:102E70000198002800D003705050002C05D000228B
:102E800001A902A804F058F8E9E70020E7E70000EC
:102E900074018030F7B58EB00546002D0AD0960635
:102EA000B60E324601A90FA804F046F804462000E9
:102EB00003D0C7E0092011B0F0BD0198029002A82C
:102EC0000F9900F0F9F90446200004D108A8C07C4D
:102ED000000600D50624F006400F4DD0002C08D087
:102EE000042C03D102A8FEF72CFF04460820064359
:102EF00009E06846807B1121084201D0072402E0E6
:102F0000700700D50824002C43D1300741D5514F1C
:102F1000099839460E3006F067FE09983946163092
:102F200006F062FE0999019802F0CEF80746099969
:102F30002020C87200220999019806F043FE0998E2
:102F400000211C3006F050FE01980121C170002FB5
:102F50001FD0C06A00900022394602A806F050FD3A
:102F60000446200015D10099019804F023F9044685
:102F700001987F1EC7600CE0002C0AD16846807B58
:102F8000C10601D5042404E0B10702D5C00700D072
:102F90000724002C08D1300701D5402006430198B2
:102FA000C06A286209986862002C4BD1099901987F
:102FB00002F08AF8A86009981C3002F098F8E860DE
:102FC000019828600198C088A8802E740020687439
:102FD000E8616861284601222830520200210D90E4
:102FE00003F06AFEB0062DD5EE68002E2AD06E6181
:102FF000019840894702A9680AE0284600F002FAD1
:103000000146012900D80224481C00D10124F61BE6
:10301000002C01D1BE42F0D8A961002C12D1F005DC
:1030200010D00198FEF786FC002811D0710A0A180A
:10303000EA610198012340780D99FEF719FF0028F5
:1030400000D00124002C01D000202860204632E767
:103050000224F7E70000A14AFFB585B004461646F2
:10306000019108980021016003A920460CF0DAFACA
:10307000002810D1607C00280DD1207CC00709D029
:103080006169E068401A864200D906462046283029
:1030900004908FE0072009B0F0BD6069C1056ED1D2
:1030A0000399470A4989491E0F40002F0FD1002874
:1030B00008D02046A16900F0A5F9022804D2022018
:1030C0006074E8E7A068F8E7411C1CD0A061A16922
:1030D0000398FEF72FFC002818D0C0190290750A3B
:1030E000002D28D003987A1941898A4200D9CD1B36
:1030F00040782B46029A0199FEF7BAFE002808D0C4
:1031000001206074C7E701206074C4E70220607486
:10311000C1E7207C00060CD5E1690298081AA84294
:1031200007D241020198012208185202049903F0C3
:10313000CFFB6D0232E0E269029882421DD0207C12
:1031400000060ED50398012340780499FEF7A1FEEE
:10315000002802D0012060749DE7207C4006400ECC
:103160002074039801234078029A0499FEF780FEA8
:10317000002802D0012060748DE70298E061A08AE7
:103180000121C005C00D49020D1AB54200D93546CE
:10319000011928312A46019803F09AFB761B0898FA
:1031A0000068411908980160019840190190606910
:1031B00040196061002E00D06FE700206BE700002F
:1031C000F8B50446694620460CF02CFA00280FD1C9
:1031D000217C4A060CD508060FD500982146E269E5
:1031E000407801232831FEF754FE002801D0012049
:1031F000F8BD207C4006400E2074154E216A0098D0
:1032000003F0D8FF0028F3D1656A2021E87A08434B
:10321000E8722946A268206806F0D4FC28461C30D3
:10322000E16806F0E1FC28463146163006F0DCFC89
:1032300028460021123006F0DFFC00980121C17001
:1032400006F0DEFC217CBF2211402174F8BD000095
:103250000000A14AF0B585B006460D460021304673
:10326000FEF7D8FA022803D0032823D2002D21D05C
:1032700000246F4620018019FF30F73001F037FF3E
:10328000A1007850641C042CF4D3002D01D06C1ED6
:1032900000E00024A0003958002903D03046FEF792
:1032A000B9FA00E00320002D04D1022802D3641CE7
:1032B000042CEFD305B0F0BD73B50446256801E0DA
:1032C000401C0190019801782F29F9D05C29F7D092
:1032D0000020A0600198264600782036202806D2DB
:1032E0008020F07200212046FEF74BFD7CBD01A935
:1032F0002046FEF7A9FB0028F8D12046FEF791FCF6
:10330000F17A002805D00428F0D14907EED4052031
:103310007CBD4907FCD4A079C00601D405207CBD42
:10332000208AC005C00D41193031284601F0CCFE7D
:10333000A060DCE710B50446E1B20248FEF750F8A1
:10334000204610BD0040005010B5002823D0124B7D
:103350000022001F196803E0814203D80A46496829
:103360000029F9D1002A0AD01368841A9C4204D19A
:10337000006818181060104602E0506000E0186005
:10338000002907D002680B1A934203D10B68D218A8
:1033900002604968416010BDA00180307CB50446E0
:1033A0000D4606F0D4FC06466B4601AA2946204687
:1033B00000F01FF80446304606F0F2FC002C04D062
:1033C0006A462846019900F001F87CBD10B5034615
:1033D0000C461068002806D0002B02D005F092F9A8
:1033E00001E003F002FF002C02D0204604F018F8A0
:1033F00010BD4168196000214160036813600160DD
:1034000001207047F8B50D460468022D02D36069AB
:10341000A84201D8012609E00026F64320780128B9
:1034200006D002282DD003283BD001263046F8BD17
:1034300068084719206A790A4118204603F0BAFE45
:103440000028F3D13946C805C00D7F1C0019203073
:10345000007C0090206A790A4118204603F0AAFEF9
:103460000028E3D1F805C00D00192030007C009938
:1034700000020843E90701D00609D7E70605360D23
:10348000D4E7206A290A4118204603F093FE002859
:10349000CCD12806C00D0019303001F034FE0646AC
:1034A000C4E7206AE9094118204603F083FE00289A
:1034B000BCD16806C00D0019303001F018FE0601BD
:1034C0003609B3E730B505460020C0432C6821001B
:1034D00008D00A78491C212A01D33A2AF9D13A2A7C
:1034E00001D0002030BD01232278303A092A03D8C8
:1034F000A41C8C4200D11346012BF3DA1846296034
:1035000030BD000010B50BF0D1F8002803D10249FE
:1035100009200860002010BD6C01803010B50A46FB
:10352000032100F0FDF810BDF3B585B004465F49F6
:103530008D6828780007860E142E6ED360890428C3
:10354000FBD360680078002868D0082866D1084658
:103550001430049048690206120F0E2A59D00968E7
:1035600000F0D2FD002854D120890828E5D3204658
:1035700000F054FD002804D0204605F0C3F807B041
:10358000F0BD31460E310F46204604F09DFD002867
:1035900036D02089811989B288423AD80522D201D1
:1035A0000E2004F0D3FD0746380032D0798930462A
:1035B0000830814203D2384605F0A4F829E03246AB
:1035C00029467868FCF72EFE3146384605F0CCF9DE
:1035D000002806D036A005F089FB384605F092F8A1
:1035E00017E02146384604F073FF002803D0384620
:1035F00005F088F80DE0204605F084F83C460EE022
:103600003946204605F0B0F9002808D036A005F06C
:103610006DFB204605F076F8B1E742E03DE06768D3
:103620003146204604F050FD002836D165680498E4
:10363000294600680C31FCF73EFE1C48294600690B
:103640001031FCF738FE00203870F978BA7809029A
:103650001143324A914204D90931B970090AF9700B
:1036600003E00831B970090AF970FF212972074691
:10367000A872000AE8723146284600F0C9FCA87218
:10368000000AE8720698012101910290FF230022AE
:1036900000972046049900F07DFF204605F032F89F
:1036A0006DE7204605F02EF869E700008C87803032
:1036B00069636D705F696E7075743A206D6F7669BD
:1036C0006E6720722D3E7061796C6F616420746F3B
:1036D0002069636D70206865616465722066616948
:1036E0006C65640A0000000069636D705F696E704C
:1036F00075743A20726573746F72696E67206F72A9
:103700006967696E616C20702D3E7061796C6F61C4
:1037100064206661696C65640A000000F7FF0000C0
:10372000F7B584B006460522D2012421222004F0F8
:103730000DFD0546280039D06889242802D21CA036
:1037400005F0D4FA77686C68059820700698607068
:10375000002020716071A071000AE07168687168D2
:1037600008301C22FCF75EFD38460C30FCF799FD52
:10377000039003A801F05AF90646300013D0002741
:10378000A770E7706989204600F042FCA070000A2B
:10379000E07001200190FF2303AA00210097029608
:1037A000284600F0F7FE284604F0ACFF07B0F0BD55
:1037B000636865636B2074686174206669727374F2
:1037C00020706275662063616E20686F6C6420698A
:1037D000636D70206D6573736167650010B50A468F
:1037E0000B21FFF79DFF10BD10B50446607A02283B
:1037F00006D0012809D16089002801D0884204D967
:10380000204600F0C3FB0120607210BD044903484C
:1038100008600448091D086070470000E0000001CE
:1038200034018030E0000002F7B582B0064617464A
:103830007189082904D2304604F064FF05B0F0BD58
:103840007468204600F0E4FB002803D0304604F002
:1038500059FFF3E73946039800F090FA054628002F
:1038600005D02078112806D0162844D13BE03046F8
:1038700004F048FFE2E722483F6800680190874271
:1038800005D1201D1CD0FCF70CFD002818D0201DF0
:1038900031D0FCF706FD00282DD00198874208D1D1
:1038A000201DFCF7FEFC00906946039800F066FAC4
:1038B0000546002D1FD061782846FFF795FF1AE0D6
:1038C0006078002801D10A2060700398056A002DF5
:1038D00006D02D6804E061782846FFF785FF2D6843
:1038E000002DF8D107E0687A012804D10020688112
:1038F000022169722872304604F004FF9EE700003E
:1039000034018030F0B587B0084C6D462C8300241C
:103910006C83042506AE0227029301970396049553
:103920000094012300F045FE07B0F0BD94040000B0
:1039300070B505460E460524E443204631680A0664
:10394000120F0E2A04D013A005F0D0F9204670BD46
:103950001E4A1268914204D11DA005F0C7F9204605
:1039600070BD28490C6812E02D21095D89060DD52E
:10397000002D05D02968002902D062688A4205D14D
:103980003146204600F040F80028E9D12468002C98
:10399000EAD170BD69676D705F6A6F696E67726F3B
:1039A00075703A20617474656D707420746F206A4C
:1039B0006F696E206E6F6E2D6D756C7469636173C7
:1039C0007420616464726573730000003401803098
:1039D00069676D705F6A6F696E67726F75703A20A4
:1039E000617474656D707420746F206A6F696E20E5
:1039F000616C6C73797374656D7320616464726556
:103A000073730000D000803070B505460E463068F4
:103A100005240106090FE4430E2904D01EA005F079
:103A200065F9204670BD2B490968884204D12AA057
:103A300005F05CF9204670BD2D20405D800604D461
:103A400034A005F053F9204670BD3146284600F0F9
:103A50009FF9044620001CD0607A002814D1207BF6
:103A6000002806D16B6B002B03D00122314628467B
:103A7000984716222146284600F0FEF905212046E7
:103A800000F084FA01206072207B401C207300202B
:103A900070BD0020C04370BD69676D705F6A6F695B
:103AA0006E67726F75705F6E657469663A206174D7
:103AB00074656D707420746F206A6F696E206E6F0C
:103AC0006E2D6D756C7469636173742061646472CA
:103AD000657373003401803069676D705F6A6F6968
:103AE0006E67726F75705F6E657469663A20617497
:103AF00074656D707420746F206A6F696E20616CDC
:103B00006C73797374656D7320616464726573732B
:103B10000000000069676D705F6A6F696E67726FA1
:103B200075705F6E657469663A20617474656D7056
:103B30007420746F206A6F696E206F6E206E6F6ED6
:103B40002D49474D50206E6574696600F8B50646EC
:103B50000F460525ED4338680106090F0E2904D0EC
:103B600014A005F0C3F82846F8BD2049096888422A
:103B700004D11FA005F0BAF82846F8BD2A48046809
:103B800013E02D20005D80060ED5002E05D0306894
:103B9000002802D06168814206D13946204600F0F3
:103BA00045F8002D00D005462468002CE9D12846B0
:103BB000F8BD000069676D705F6C6561766567725E
:103BC0006F75703A20617474656D707420746F2025
:103BD0006C65617665206E6F6E2D6D756C746963B2
:103BE00061737420616464726573730034018030A2
:103BF00069676D705F6C6561766567726F75703A45
:103C000020617474656D707420746F206C656176CA
:103C10006520616C6C73797374656D732061646485
:103C20007265737300000000D0008030F8B505465F
:103C30000E46306805270106090FFF430E2904D000
:103C40001FA005F053F83846F8BD2D490968884291
:103C500004D12CA005F04AF83846F8BD2D20405D6F
:103C6000800604D436A005F041F83846F8BD314648
:103C7000284600F083F8044620001ED0207B01284F
:103C800017D82146284600F0D7F8207A002804D01B
:103C900017222146284600F0EFF86B6B002B03D06B
:103CA000002231462846984721460A2003F0E0F8D2
:103CB00001E0401E20730020F8BD3846F8BD00002A
:103CC00069676D705F6C6561766567726F75705F4F
:103CD0006E657469663A20617474656D70742074E1
:103CE0006F206C65617665206E6F6E2D6D756C74DE
:103CF00069636173742061646472657373000000AA
:103D00003401803069676D705F6C656176656772DC
:103D10006F75705F6E657469663A20617474656D65
:103D2000707420746F206C6561766520616C6C73B3
:103D3000797374656D7320616464726573730000D8
:103D400069676D705F6C6561766567726F75705FCE
:103D50006E657469663A20617474656D7074207460
:103D60006F206C65617665206F6E206E6F6E2D49D9
:103D7000474D50206E65746966000000006A04E0DB
:103D800042680B689A4202D000680028F8D1704758
:103D9000F8B507460D463E6A29463846FFF7EEFF5E
:103DA00000281CD10A2003F0A7F80446200015D0F3
:103DB000002D15D02868606000206081607220723C
:103DC00020730E48002E0DD029680068814202D170
:103DD0000B4804F08BFF3068206034602046F8BD4B
:103DE0000020E8E729680068814202D005A004F0BD
:103DF0007DFF002020603C62F0E70000340180304D
:103E00001802011069676D705F6C6F6F6B75705F82
:103E100067726F75703A2066697273742067726F8B
:103E20007570206D75737420626520616C6C737998
:103E30007374656D7300000002460020126A06E08C
:103E400013688B4202D10968116002E01A46002A09
:103E5000F6D1002A01D10F20C043704710B5046A83
:103E6000002C06D0246804E005212046FFF7BCFCA6
:103E70002468002CF8D110BDF7B582B00E46154667
:103E8000234800680190002000900522D2010821FB
:103E9000362004F05BF90746380037D07C68788913
:103EA000082802D21BA004F021FF0298406801906C
:103EB000162D02D0172D09D00EE0301D0090211DC7
:103EC0007068FCF7F8F90120307205E02048009096
:103ED000211D7068FCF7EFF9162D01D0172D12D1B6
:103EE000257000206070A070000AE0700821204654
:103EF00000F08EF8A070000AE07001A93846029B1D
:103F0000009AFFF7FFFC384604F0FCFB05B0F0BD5B
:103F1000F000011069676D705F73656E643A20632D
:103F20006865636B207468617420666972737420BD
:103F3000706275662063616E20686F6C64207374B4
:103F4000727563742069676D705F6D736700000040
:103F50003801803010B504460B492046FFF718FFA2
:103F600000280DD002214172017B491C0173636B53
:103F7000002B03D00122044920469847002010BDA1
:103F80000020C04310BD00003401803070B50446ED
:103F90000D46022D05D9FCF733F92946FCF71CF92B
:103FA00000E0012189B26181002901D101206081F5
:103FB00070BD000010B54A7A012A09D1054B4A6844
:103FC0001B689A4204D002224A721622FFF754FF5D
:103FD00010BD00003401803070B50C48056811E058
:103FE0002C6A0CE06089002808D0401E80B26081F5
:103FF000002803D121462846FFF7DCFF2468002C67
:10400000F0D12D68002DEBD170BD0000D0008030C4
:1040100000B502F073FBC04380B200BD70B5054629
:104020000026002414E06989686802F067FB001923
:10403000010C80B20C18A87AC00708D0002E14D04A
:1040400000262006000C2104090E04460C432D68AE
:10405000002DE8D1002E05D02006000C2104090E09
:1040600004460C43E04380B270BD0126E9E770B519
:10407000049D1B689CB21B0C1C192B689DB22C194B
:104080001B0C1B191C0C9BB2E3181C0C9BB2E318F5
:1040900000F001F870BDFFB581B005460F461C4623
:1040A000002614E06989686802F028FB0019010CF9
:1040B00080B20C18A87AC00708D0002E22D00026A3
:1040C0002006000C2104090E04460C432D68002D27
:1040D000E8D1002E05D02006000C2104090E04466C
:1040E0000C43384601F0BEF90419039801F0BAF9FF
:1040F0000019010C80B20818010C0818C04380B2E6
:1041000005B0F0BD0126DBE708B50090421C07D0E2
:10411000020005D02D22525C920703D4002008BD76
:10412000012008BD4A68824201D1002008BD89688B
:1041300003460B400A40934202D10143491C01D07F
:10414000002008BD012008BDF7B58CB0044600274B
:104150000D98808C1438C117490F08184003000CC3
:1041600007901425606809900998BE1F0178090717
:10417000090F052902D030460FB0F0BD618914291E
:1041800004D264A004F0B2FD3046F5E7C17982792B
:104190000802104301F066F9C104C90C0491012121
:1041A0004903084003902089143880B20690ABE0A0
:1041B00007980699C004000C884200D9069805901B
:1041C0000522D20114210E2003F0C0FF0B900B98A2
:1041D00000285DD00B984089142802D254A004F026
:1041E00085FD0B98142240680999FCF71BF80B9881
:1041F00040680890059E32E06089411B8FB2A8425A
:1042000002D253A004F072FDBE4200D23746002F06
:1042100031D000F094FC0290029800282ED0606803
:10422000019740190090412239460020029B04F07A
:104230009BF80A900A98002824D0204604F078FBC6
:10424000029844610298464901610A990B9804F06A
:10425000A7F8F01B86B2002E01D000252468002E9E
:10426000CAD1E81985B20D980699808C1438884215
:1042700011DB012110E000252468F0E70B9804F021
:1042800041FA05E0029800F05FFC0B9804F03AFA5E
:104290000020C04370E700210498C004C00C00292E
:1042A00002D00399002902D001214903084301F0FB
:1042B000D9F808998871000AC8710598143080B23D
:1042C00001F0D0F808998870000AC8700898002199
:1042D0008172C17214210898FFF79AFE08998872BA
:1042E000000AC8720D980E9A43690B9998470B986B
:1042F00004F008FA05990698401A80B206900799CA
:104300000498401880B204900698002800D04FE727
:1043100032E700006970345F6672616728293A20CD
:104320007062756620746F6F2073686F727400001E
:1043300074686973206E65656473206120706275AE
:104340006620696E206F6E65207069656365210067
:10435000702D3E6C656E203E3D20706F66660000DD
:104360009D500010F0B585B006460F460120019023
:10437000756828780109042905D0304604F0C2F98F
:10438000002005B0F0BD0007800E0290E878A97803
:104390000002084301F066F804463089A04203D9C0
:1043A0002146304604F062FA71890298814205D3B1
:1043B0003089A04202D30298142804D2304604F077
:1043C000A1F90020DDE728460299FFF721FE002829
:1043D00004D0304604F096F90020D2E72846103089
:1043E000FBF75FFF5C490446486128460C30FBF749
:1043F00058FF594908612006010F574814300390AF
:104400000E2906D0384600F0ADF8002819D03C46F9
:1044100029E02D20C05D800611D538460399FFF7AD
:10442000ADFC00280BD04D4900914B4842698A42AF
:1044300003D10069002800D101903C4613E000241C
:1044400011E000244448007D7F280CD044480468D3
:1044500007E0BC4204D0204600F084F8002802D1D6
:104460002468002CF5D1019800280CD03A48394630
:104470000069FFF749FE002832D13748007C00066A
:10448000000F0E282CD0002C2FD0E879A97900023B
:104490000843C021884306D0304600F0A5F90646FF
:1044A000002E27D075682C48046047608560297805
:1044B0000907890E81813046029904F055FA687A1D
:1044C000012823D0022826D006281AD0112813D07C
:1044D000214D21466869FFF717FE002821D02EE004
:1044E000304604F00FF900204BE7304604F00AF99B
:1044F000002046E7002044E7394630460AF05CF9E0
:1045000020E03946304606F081FB1BE03946304654
:10451000FFF70AF816E039463046039AFFF784F9A8
:1045200010E0287D0006000F0E2808D0029801B286
:10453000304604F07EF902213046FEF7EFFF3046A8
:1045400004F0E0F80448002101604160816081814D
:1045500001614161002014E78C878030E000000198
:10456000D000803010B52D21095CC9070ED04168FC
:1045700000290BD0064A52698A4205D001461046EE
:10458000FFF7C2FD002801D0012010BD002010BDA2
:104590008C878030F0B585B00A9F0B9E0C9D00245F
:1045A0000394009701960295049400F002F805B078
:1045B000F0BDF0B585B00CACD0CC0B9D8446002A84
:1045C00005D0080002D00868002800D1211D02A8EB
:1045D000D0C00A9800900195604600F003F805B03D
:1045E000F0BD0000FFB583B0109F05460026A87BF4
:1045F000012802D062A004F079FB059800287DD044
:1046000014200190002F2BD0282F03D90520C04360
:1046100007B0F0BD5D48FC1C04402046143080B259
:1046200001902146284603F04FFD002802D00120CA
:10463000C043EDE73A4668680F99FBF7F3FDA742E0
:1046400004D26868E11BC019FBF713FE0020610863
:1046500004E06A684300D25A9619401C8142F8DC93
:104660001421284603F030FD002802D00120C04369
:10467000CEE76C686889142802D245A004F036FBA6
:10468000069820720D98607206990D9A0D9809028D
:1046900011430002090A084386190598214600685B
:1046A0001031FBF708FE81B28919000C41180198FE
:1046B000402280081043C0B220700C9A62700C9B9C
:1046C0000C9A000218431202000A02435618288965
:1046D00000F0C8FEA070010AE17087190020A071E7
:1046E000E071374E308800F0BDFE2071010A617123
:1046F000C7193088401C3080049800E020E0002872
:1047000017D00498214600680C31FBF7D4FD2046F1
:104710000C30FBF7C6FD81B2C919000C4018010C22
:1047200080B20818010C0818C043A072000AE07299
:1047300013E02448214600680C31FBF7BCFDE6E796
:104740006889142802D20120C04361E768681030EC
:10475000FBF7A7FD029002A805900E98808C002818
:1047600008D02989814205D92846059A0E99FFF774
:10477000EBFC4DE70E9829464369059A984747E7B1
:10478000702D3E726566203D3D203100FCFF00002B
:10479000636865636B207468617420666972737402
:1047A00020706275662063616E20686F6C64207390
:1047B00074727563742069705F6864720000000031
:1047C0003C018030F0000110F0B585B00A9F0B9ECF
:1047D0000C9D002403940097019602950494FFF722
:1047E00001FF05B0F0BD0000F1B584B00498456844
:1047F00028780007000F05287ED1E879A979000202
:10480000084300F02FFEC004070CE878A9780002E6
:10481000084300F027FE29780907890E81426BD8EA
:10482000401A80B20190049803F027FE06466E4CB1
:10483000208880190A2809D93146284600F0CCFB87
:10484000002859D0208880190A28E8D8664844688A
:1048500028460C300390001D029013E00398FBF7EC
:1048600020FD616988420CD10298FBF71AFDA1690D
:10487000884206D168792A79A189000210438142D1
:1048800002D02468002CE9D1002C08D0E879A9795D
:104890000002084300F0E6FDC00408D012E03146F3
:1048A000284600F0DDFA04462000CAD00AE0E0897C
:1048B00000F0D8FDC00405D0204614222946083057
:1048C000FBF7B0FCE879A979000208438006C51718
:1048D0006D1C002D07D00198381880B2B8426FD3F4
:1048E000424988426CD82A462046049900F03EF995
:1048F000411C65D03C4900E070E00A8892190A80AA
:10490000002D06D001997918A183A17F01221143BE
:10491000A177012802D0002005B0F0BDA08B143093
:1049200086B2606845682846FBF7BBFC074621460F
:10493000142208312846FBF775FC304600F092FD42
:10494000A870000AE8700020A871E871A872000A37
:10495000E87214212846FFF75BFBA872000AE87290
:1049600066680CE07D681421384603F0FDFF394687
:10497000304603F015FD2846FBF793FC0746002F51
:10498000F0D1194D69688C4205D1002105E0086815
:10499000A04202D001460029F9D1204600F03AFA9F
:1049A000304603F06AFD04462888A04202D210A0D7
:1049B00004F09CF92888001B28803046ACE7FFE70C
:1049C000606800280AD108484068844202D00FA0DD
:1049D00004F08CF90021204600F01CFA049803F042
:1049E00091FE002098E7000044018030EBFF0000BA
:1049F00069705F72656173735F70627566636F750E
:104A00006E74203E3D20636C656E00006E6F7420F6
:104A10006669727374616C74686F756768206A7513
:104A2000737420656E7175657565640030B50168D5
:104A30000806000F0E2803D11748406800282AD125
:104A40001648006814E02D22125CD3070FD05307DC
:104A50000DD54368002B0AD084680D4625402340BD
:104A60009D4218D0920702D4C268914213D00068C8
:104A70000028E8D10A48006800280BD02D22125CDB
:104A8000D30707D0520705D54268002A02D0C9B221
:104A90007F2900D1002030BD3C018030D000803023
:104AA000D400803010B51022014900F003F810BD89
:104AB00084C38130F7B584B0002600680390059D5B
:104AC00003AF00200190002438780A21FBF76EFB29
:104AD000387030312346641C02AAE4B2D154002855
:104AE000F2D10AE030460699761C884202DB0020AB
:104AF00007B0F0BD105D28706D1C2046641EE4B246
:104B00000028EFD130460699761C884201DB002050
:104B1000EEE72E2028706D1C7F1C0198401CC0B24F
:104B2000019001980428CED300206D1E28700598AE
:104B3000DEE738B5049C0094FFF799FA38BD10B54C
:104B4000052002F0D9F910BD10B50446002C02D1A1
:104B500003A004F0CBF82146052002F089F910BD2E
:104B60007020213D204E554C4C000000F7B586B01A
:104B70000025012607984468E078A17800020843E0
:104B800000F070FC21780907890E814202D9681E65
:104B900009B0F0BD401A0190E079A1790002084304
:104BA00000F060FCC004070C079844680020214610
:104BB000FBF781FB2771380A607105970198381857
:104BC00080B2A071010AE1710490B84202D20020C3
:104BD000C043DDE706984068029059E002984768B4
:104BE000059978793A7900021043814232D2214600
:104BF0000298FBF760FB002D1ED0E879AA7900022D
:104C0000104305990390814206D379793A790902D4
:104C100004981143884202D90020C043B8E72946CE
:104C20000798FBF748FB6179227909020398114341
:104C3000884230D000262EE079793A79090204982A
:104C40001143884202D90020C043A1E70699079882
:104C5000486020E00599814202D10020C04397E7D7
:104C6000FA79BB79120205991A43914202D20020C7
:104C7000C0438DE7002D06D0E979AA7909021143D6
:104C8000814200D000263846FBF70BFB02903D46E0
:104C900002980028A2D10298002828D1002D1CD00B
:104CA000E879A97900020843617922790902114360
:104CB000884202D934A004F019F829460798FBF776
:104CC000FAFAE879A97900020843617922790902A0
:104CD000114388420BD0002609E00698406800285E
:104CE00002D031A004F002F80699079848600898AD
:104CF000002803D10698807FC00742D0002E3AD00A
:104D000006984768002F05D0786841790279080233
:104D1000104301D000262EE025462046FBF7C1FABD
:104D200010E04468E879A9790002084361792279A2
:104D300009021143884201D0002605E0254620469D
:104D4000FBF7AFFA0028ECD1002E14D0002F02D1CF
:104D500023A003F0CBFF069840684068A04202D130
:104D60001FA003F0C3FF2046FBF79BFA002802D0E8
:104D70001FA003F0BBFF002E01D0012008E7002098
:104D800006E7002004E70000636865636B20667235
:104D900061676D656E747320646F6E2774206F7623
:104DA00065726C61700000006E6F207072657669CC
:104DB0006F757320667261676D656E742C20746800
:104DC0006973206D75737420626520746865206650
:104DD0006972737420667261676D656E742100007C
:104DE00073616E69747920636865636B000000000D
:104DF00076616C69646174655F6461746167726136
:104E00006D3A6E6578745F70627566213D4E554CE3
:104E10004C00000070B504460D4609484168A142A7
:104E200002D12168416006E0002D02D105A003F007
:104E30005DFF206828602146042002F019F870BD4B
:104E40004401803073616E69747920636865636BB7
:104E5000206C696E6B6564206C69737400000000DF
:104E600070B506460D46042002F046F80446002CB4
:104E70000BD12946304600F0AFF8A84203DB0420EE
:104E800002F03AF80446002C11D020212046FBF70E
:104E9000F0F90F20E0770748416821604460204620
:104EA000142231460830FBF7BDF9204670BD0020C2
:104EB00070BD000044018030F8B506460F4600245E
:104EC000B74202D129A003F011FF002F05D03868A6
:104ED000B04202D028A003F009FF756868684179E4
:104EE0000279090211431AD1FBF7DBF970603146F0
:104EF000142208316868FBF795F901212846FEF76E
:104F00006DFC284603F0B9FA04462048844202D9D1
:104F10001FA003F0EBFEA4B2284603F0F3FB756874
:104F200012E068680095FBF7BCF90546009803F0AD
:104F3000A4FA24181548844202D915A003F0D6FE1D
:104F4000A4B2009803F0DEFB002DEAD139463046CA
:104F5000FFF760FF164D2888A04202D215A003F08B
:104F6000C5FE2888001B28802046F8BD7072657633
:104F700020213D2069707200707265762D3E6E654D
:104F80007874203D3D20697072000000FFFF000032
:104F900070627566735F6672656564202B20636C52
:104FA000656E203C3D203078666666660000000035
:104FB0004401803069705F72656173735F70627500
:104FC00066636F756E74203E3D2070627566735F18
:104FD0006672656564000000F3B583B0002001903F
:104FE000002500260020029000271F48446823E087
:104FF00003980C30FBF755F9616988420ED103988C
:105000001030FBF74EF9A169884207D10398A189B6
:105010004279037910021843814208D07F1C002D89
:105020001ED0E07FE97F884201D82546029620689D
:10503000002800D026460446002CD9D1002D06D0E9
:1050400028460299FFF738FF019908180190049942
:105050000198884201DA012FC2DC019805B0F0BD49
:1050600025460296E3E700004401803070B5002534
:10507000094844680CE0E07F002804D0401EE07737
:105080002546246804E0204624682946FFF714FFDB
:10509000002CF0D170BD00004401803010B50446F2
:1050A000002C02D105A003F021FE6069002801D088
:1050B00003F028FB2046FFF747FD10BD7063722008
:1050C000213D204E554C4C0070B506460D462846F5
:1050D0001A3000F018F804463078032805D1284625
:1050E000143000F010F800040443204670BDC1786D
:1050F00082780902114342780902114300780902BB
:105100000143084670470146487809780002084381
:10511000704700007FB505462FA003C80391029099
:105120002FA0046801942F4800260677062202A9C2
:10513000801DFBF777F82B4824384463062202A928
:105140001630FBF76FF827480121243801604660CC
:10515000014649200006FBF79FFB2C46042620341D
:10516000012802D1607B30436073FCF7ABFF06205F
:105170002073002102A86B18425C20339A71491CED
:105180000629F8DB1848A884607B0A21084360736D
:10519000002128200AF07CFA1449086013480021F5
:1051A000001D04F0A1FE002802D111A0FCF736F981
:1051B0000E483221083004F032FE002802D110A03F
:1051C000FCF72CF90123DB022A46124912A00096B3
:1051D00004F0E2FE7FBD000060504030201000006F
:1051E000C0A80002B8C38130DC0500004C0180304B
:1051F0007379735F73656D5F6E6577206F6B0A00FF
:105200007379735F6D626F785F6E6577206F6B0A7D
:1052100000000000FD2C0010455448494E000000DD
:10522000F8B5002600251948194B02690C204243A5
:10523000D018017A012901D00020F8BD8088001F14
:1052400081B298580090002905D0FF2283320020B7
:1052500002F07CFF0646002E13D00C48FCF788FFB6
:105260000C480099FBF7DFFB344608E0678900989B
:105270003A4641196068FAF7D5FFED192468002C09
:10528000F4D10248FCF730FB3046F8BD3C038030D7
:10529000BC018030B8C38130F0B5144B0C469D443E
:1052A00002A8019000270025114900206944886464
:1052B00009E066890198616840193246FAF7B2FF41
:1052C000AD19BF192468002CF3D10A48FBF7DBFEA7
:1052D00039460198FCF79CFF0648FBF7C4FE0448DA
:1052E000034B6844806C4C339D44F0BDB4F9FFFF20
:1052F00000060000B8C38130F8B50C461646FEF72C
:1053000001F905460027FF43002D04D03046164E14
:10531000102807D101E03846F8BD6078022801D195
:10532000A0070BD011A003F0E1FC0F20C043FCF755
:10533000BBFE002800D030603846F8BD60680090A1
:10534000608800F08FF802466946286802F018F875
:10535000002806D0FCF7A8FE002800D030603846B0
:10536000F8BD0020F8BD00006C0180306C776970DA
:105370005F62696E643A20696E76616C696420616F
:105380006464726573730000F8B5074600263846FA
:10539000FEF7B8F80446751E002C07D020680028D8
:1053A00008D000780009012802D009E02846F8BD9D
:1053B000012605E06068002802D00CA003F096FCEE
:1053C000384601F077F9206802F026FA002807D065
:1053D000FCF76AFE002801D00A4908602846F8BD9B
:1053E00031462046FDF7DAFF0020F8BD736F636B8E
:1053F0002D3E6C61737464617461203D3D204E5597
:105400004C4C00006C01803070B5044660688047E9
:1054100004F05AFD094A216852688B18084D1A1A7F
:10542000AA4205D908182246064904F013FE70BDA9
:1054300022460449184604F00DFE70BD1C01803060
:10544000FFFFFF7F09540010FF22120202400106F5
:1054500012021143FF2212040240120A1143000EED
:10546000084370470106090C000A0843704710B54D
:1054700004F0BAFC01F0D8FA01F01AFD02F066FD62
:1054800009F08CF905F0B4FBFEF7C0F904F034FE26
:1054900010BD10B50446216805204B68C043002BA1
:1054A00011D0097809090901102907D020290AD14A
:1054B000A2891846A16809F011F904E0A2891846EA
:1054C000A16804F049FF207110BD000010B504462A
:1054D000216848780A234A68DB43002A43D00A78C7
:1054E0001209012A3FD1227A032A01D002283AD098
:1054F000032832D0012832D0D00702D0084601F06C
:10550000A1FF2068006B002802D018A003F0EEFB7A
:10551000216804204870206804630021206800F09E
:1055200039F8002818D020684078042802D016A046
:1055300003F0DCFB164804F0BFFC206800210C30AF
:1055400004F00AFC124804F091FC2068407800281E
:1055500002D00DA003F0CAFB10BD237110BD0420C2
:10556000C043207110BD237110BD0000616C7265D5
:105570006164792077726974696E67206F72206345
:105580006C6F73696E67000073746174652100004D
:1055900080008030F3B585B0044600200290019071
:1055A000002C02D195A003F0A1FB2078000901286E
:1055B00002D096A003F09AFB6078042802D09BA04A
:1055C00003F094FB6068002802D1A1A003F08EFBD9
:1055D000206B002802D1A3A003F088FB6768206B32
:1055E000007AC107C90F04910221014003910328E9
:1055F00011D00498002806D0387D05280DD0062843
:105600000BD0082809D00398002808D0B87EC0061F
:1056100005D5012604E0012602E0012600E000266F
:10562000002E03D00021384604F092FE387D012878
:1056300028D00498002807D00021384607F008FB3E
:105640000021384604F01BFE0398002803D00021F7
:10565000384607F0D7FD002E08D000221146384604
:1056600006F03EFD0021384605F0A2F9002E3BD0A1
:1056700000252C20205E00282DDB6168CA6E002AE0
:1056800008D104E00021384604F0F9FDEEE7096F87
:10569000002920D0002806D02E20005D800707D5E5
:1056A0000625ED4317E0384604F0E4FD002712E03C
:1056B00004F00AFC216B7D22C968D200411A2C201B
:1056C000205E5043814204DB384604F0D3FD0027BE
:1056D00001E001200190002D0CD1002F0AD03846A6
:1056E00004F0BAFE054605E03846039A049907F02F
:1056F000ABFD0546002D10D0681C17D0012002908C
:105700000298002858D0206B07680C3705710020DC
:1057100020636070002D28D045E0012002900198A0
:105720000028EDD000200290451FE9E75448009082
:10573000E069002800DD00902C20205E002803DBBB
:105740007D21C9004843009004F0BEFB216BC9686D
:10575000411A00988142D3DB01200290002ECFD065
:10576000384604F087FD0025CAE7002E07D06060A8
:10577000636B002B03D00022042120469847049835
:10578000002806D0636B002B03D000221146204670
:1057900098470398002806D0636B002B03D00022A3
:1057A0000221204698470698002802D0384604F087
:1057B000CDFB002007B0F0BD387D012802D131A01B
:1057C00003F094FA0398002803D03749384607F0CD
:1057D00019FD01223549384606F082FC3449384625
:1057E00005F0E6F82146384604F0B2FD002D02D15E
:1057F00030A003F07BFA2846DCE70000696E766192
:105800006C696420636F6E6E0000000074686973D9
:1058100020697320666F7220746370206E657463F4
:105820006F6E6E73206F6E6C79000000636F6E6E2A
:10583000206D75737420626520696E2073746174C5
:1058400065204E4554434F4E4E5F434C4F534500E9
:1058500070636220616C726561647920636C6F7340
:1058600065640000636F6E6E2D3E63757272656EC7
:10587000745F6D736720213D204E554C4C00000035
:10588000204E0000436C6F73696E672061206C6965
:105890007374656E20706362206D6179206E6F7421
:1058A000206661696C210000099B0010B18B00101B
:1058B000451F001065727220213D204552525F4FF6
:1058C0004B00000070B5044620684578002D06D0D6
:1058D00000780009012802D03AA003F007FA002D51
:1058E00003D0022D01D0032D06D1032D08D120684D
:1058F0002030807B400703D40420C04320712EE079
:10590000032D07D120682030807B400702D432A0CD
:1059100003F0ECF900252571206801F093FD206863
:10592000416800290DD0027812091201102A1BD0FB
:10593000202A04D14D622068406809F03BF92068B4
:1059400045602068436B002B02D000221146984727
:105950002068436B002B02D0002202219847206868
:105960000C3004F011FB70BD006B002802D022A0A7
:1059700003F0BCF9216804204870032020722068DD
:10598000046300212068FFF705FE0028EBD02068A3
:105990004078042802D01FA003F0A8F91F4804F0A3
:1059A0008BFA206800210C3004F0D6F91B4804F073
:1059B0005DFA206840780028D5D016A003F096F94B
:1059C00070BD00006E6574636F6E6E2073746174D9
:1059D00065206572726F7200626C6F636B696E67CF
:1059E00020636F6E6E65637420696E2070726F67DE
:1059F0007265737300000000616C726561647920E8
:105A000077726974696E67206F7220636C6F736957
:105A10006E6700007374617465210000800080303F
:105A200010B501680A244968E44300293ED0027C8D
:105A3000002A03D082680968116002E08268496820
:105A400011600021017101680A7812091201102AFF
:105A500017D0202A03D016A003F048F910BD027C0D
:105A6000002A04D04968C068498A018010BD49688D
:105A70000A7C520701D4047110BDC068898A018074
:105A800010BD027C002A05D14B681B7D002B06D07F
:105A9000012B04D0002A04D04968C98A03E00471AC
:105AA00010BD4968098BC068018010BD047110BD2C
:105AB000696E76616C6964206E6574636F6E6E5F8B
:105AC000747970650000000010B504460A20C043D8
:105AD000207120684168002906D00078000902285A
