:020000041000EA
:1000000040020030DD0100104D0B00101F0B0010EE
:1000100000000000000000000000000000000000E0
:10002000000000000000000000000000D90B0010DC
:1000300000000000000000009B010010DD0B00101C
:100040000D0D0010350D0010550C00107D0C00102A
:10005000310A0010F90100102D0A0010250B0010C4
:10006000170A0010510B001003020010190A0010AB
:10007000E30C0010090200100B0200100D0200102A
:100080000F020010110200101302001015020010E0
:1000900017020010190200101B0200101D020010B0
:1000A0001F02001021020010230200102502001080
:1000B00027020010290200102B0200102D02001050
:1000C00000F002F800F03EF80CA030C80838241800
:1000D0002D18A246671EAB4654465D46AC4201D180
:1000E00000F030F87E460F3E0FCCB6460126334274
:1000F00000D0FB1AA246AB46334318475C120000FF
:100100007C120000103A02D378C878C1FAD852079E
:1001100001D330C830C101D504680C6070470000BD
:100120000023002400250026103A01D378C1FBD813
:10013000520700D330C100D50B6070471FB51FBDFB
:1001400010B510BD03488546FFF7F8FF00F076FEB6
:1001500000F052FC4002003003B4FFF7F1FF03BC93
:1001600000F052FC084B19680868203080F30988B9
:10017000022080F31488BFF36F8F3FBCAE4608BCEB
:1001800004BC62B61847000004000030EFF3108092
:1001900072B6704780F310887047EFF309800E4BFA
:1001A0001A6820381060F0C044464D4656465F46F7
:1001B000F0C008B572B600F0CFFF62B60CBC116893
:1001C00008681030F0C8A046A946B246BB4680F386
:1001D00009882038F0C818470400003014488047C8
:1001E00014480047FEE7FEE7FEE7FEE7FEE7FEE70E
:1001F000FEE7FEE7FEE7FEE7FEE7FEE7FEE7FEE7D7
:10020000FEE7FEE7FEE7FEE7FEE7FEE7FEE7FEE7C6
:10021000FEE7FEE7FEE7FEE7FEE7FEE7FEE7FEE7B6
:10022000FEE7FEE7FEE7FEE7FEE7FEE7FEE700008B
:10023000010C0010C1000010002203098B422CD3D6
:10024000030A8B4211D300239C464EE003460B4326
:100250003CD4002243088B4231D303098B421CD388
:10026000030A8B4201D394463FE0C3098B4201D37A
:10027000CB01C01A524183098B4201D38B01C01AB2
:10028000524143098B4201D34B01C01A5241030929
:100290008B4201D30B01C01A5241C3088B4201D3D8
:1002A000CB00C01A524183088B4201D38B00C01A85
:1002B000524143088B4201D34B00C01A5241411AAC
:1002C00000D201465241104670475DE0CA0F00D08F
:1002D0004942031000D34042534000229C46030988
:1002E0008B422DD3030A8B4212D3FC22890112BA0E
:1002F000030A8B420CD3890192118B4208D38901E6
:1003000092118B4204D389013AD0921100E08909FD
:10031000C3098B4201D3CB01C01A524183098B42DE
:1003200001D38B01C01A524143098B4201D34B01C7
:10033000C01A524103098B4201D30B01C01A52412A
:10034000C3088B4201D3CB00C01A524183088B42B1
:1003500001D38B00C01A5241D9D243088B4201D33A
:100360004B00C01A5241411A00D201466346524125
:100370005B10104601D34042002B00D54942704724
:1003800063465B1000D3404201B50020C046C04622
:1003900002BD0000F0B50C46871A9C410D46861A36
:1003A0009D4103D2C01BA141D21963410D0D1F0D08
:1003B000C94EEC1BAE435CD07F057F0D0026002F9D
:1003C00051D02D05AC46A943DD020123ED0A1B05E2
:1003D0001D4320231B1B24D41746E74038187141C6
:1003E0002F46E740CC199D402818314661410C0D3D
:1003F00027D161449A4013D50023401C5941520033
:100400000ED14008400001224B005205D34207D3D1
:1004100005204007C14201D5B04900E0B04930464F
:10042000F0BD6B00002A00D001229A181F23203C47
:100430001B1B01D5002302E0E540281871410C0D7B
:10044000D7D0012424050919C407CD07400849085D
:10045000E40F28436144002CD5D00024401C6141A6
:100460009A40D0D1CDE76A05520DD9D1C90FC9073D
:10047000D5E79C4D4E00002801D0012400E0002467
:1004800034195F00002A01D0012600E00026BE19C1
:10049000954FAC420CD8AE420AD8B44206D00125E2
:1004A0006D05EC42BCD010461946F0BD9942FCD017
:1004B00000203946F0BDF0B51FB40C460F46811A36
:1004C0009F412546861A9D4106D20125ED076F40C2
:1004D000401ABC4152187B41210D1E0D8D1BAC46AC
:1004E0007D4D8D437ED075056D0D7CD00D05AE46DE
:1004F000AC431B031B0B794D52429D4120236646A2
:100500009B1B14D31746F7403818002600907441FF
:1005100060462F460741E41900989D40281866411F
:1005200016D4714671189A4025D5012320E09318FE
:100530002A466A415200002B00D0521C1E23203E46
:100540009B1B002B61DD3541EE1728186641E8D56D
:10055000001876415B1C9A4000D3401C4B05F318F1
:100560001524E34010D3002B52D071467118D30FDD
:10057000C01802D3491C05B0F0BD0123DB079A4225
:10058000F9D140084000F6E701225205B21801D126
:10059000002853D00123CC0ADB029943891E002A8C
:1005A00008D1020C03D0020C0004103902E002460C
:1005B000002020390023550B05D112020823550BCA
:1005C00001D152010D23550C01D112011B1DD50C77
:1005D00001D192009B1C150D01D152005B1C2025FE
:1005E000EE1A01E02CE022E00546F5401543984064
:1005F000CA1AE10769181305C918002ABBDA0320D3
:1006000040070818C10FC9070FE071466118B2E72B
:10061000F10740080843711071444A000CD00123CF
:100620005B059A42A7D2C90FC9070020A3E7490575
:10063000490D26D1002001E00028F4D100219AE7DD
:10064000284D6600002801D0012100E0002171182A
:100650005F00002A01D0012600E00026BE19224FCB
:10066000A94210D8AE420ED8B14208D001256D057E
:10067000E94206D01946A802414010467BE79C4259
:1006800001D0214677E70020394674E710B50C46C3
:100690005C4005D50124E4076340FFF70CFF10BD63
:1006A000FFF778FE10BD30B40C465C4004D5012441
:1006B000E407634030BC6DE630BCFCE670B5012455
:1006C000E40761400D465D4002D4FFF763FE70BD54
:1006D0006340FFF7F0FE70BDFF0700000000F0FF71
:1006E0000000F07F0000E0FF0000F87F30B5034617
:1006F000CA02400D1043164D164C0A1502D0204375
:10070000002A06DBAA1A002A12DDD040FF2A0BDCE1
:1007100030BD5205520D01D140004008AA1A07D43D
:10072000D0404042FF2A01DD002030BD0028FCDD22
:100730004A00002B01D0012000E000201018012207
:100740005205D042F0D8C817C043604030BD000009
:100750001E040000000000801F22030C02D10F22A3
:10076000000402D0030E03D004E0002001467047CD
:100770000002083A030F01D10001121F830F01D1BB
:100780008000921E002801DB4000521E1205511805
:100790004205C012411810467047C10FC90700D06A
:1007A0004042012292071143D6E701218907D3E78E
:1007B000F0B58B4C0F09254689B0BD437BD01D0990
:1007C0002646AE43FAD00E465E402740F60F3E4323
:1007D000254071D024012142FBD0FF24AD19A4048F
:1007E0002D1B039501252D05DB02DB0AC9022B43D6
:1007F000C90A29431E010901040F130F05012143F2
:100800001701880B820391432D098C46A90B1E43C7
:100810008A039543B30B9A0396433F09BA0B94039B
:10082000A74302962E467E430497B6464E19D71923
:100830000C460196544305977E43371B7646BF1BF3
:100840003601B646BE0B361900967646BC043719FB
:10085000009C01D3641C00946400002F01D0012689
:100860003443029E049F754366467E430496760099
:1008700034196E0034190094029C019E1C196643C1
:10088000751BAE46069465464519059C05956C4357
:10089000594375460891691A0191049E01465143D6
:1008A000A41B0491611A009C0791E10605D061091F
:1008B0000122114302E072E06EE06109089D002709
:1008C0002C0A2D066918049D7C412A0A2D066918F8
:1008D000019D6241AC0DAD026D185441079A910D16
:1008E000920255196141029A644658435443069B4B
:1008F000059A5A43121A131B9A0E9B015B187A41F0
:10090000010B0005C3185141220A200644195A411F
:100910009A4200D2491C01204002814203D3152390
:100920000226F64302E014230326F6432020C51ACC
:10093000A9401746AF40DA400A4320460399D84001
:100940000914731819055118039A3843D2075140F6
:10095000AC4009D00122944006D30022401C5141F2
:10096000002C01D1400840001E4A934212D30122BC
:1009700003989206904207DB0520400709181A48A1
:100980000143C012414004E0032040070818C10F92
:10099000C907002009B0F0BD0020F107FAE70518EB
:1009A0000C464C4111486D42A04115D394181A468B
:1009B0005A410E48644290410ED301204A0040053E
:1009C000824209D35A00824206D35940C90F084ACD
:1009D000C90700201143DDE700200649DAE70000DF
:1009E0000000FF07FE070000FFFFFF7F0000E0FFA1
:1009F0000000F07F0000F87F10B50446C046C046F6
:100A00002046FFF7A9FB10BD01491820ABBEFEE749
:100A10002600020070477047704701B502E0009859
:100A2000401E009000980028F9D108BD70470000D2
:100A300010B50121880700F051F802A000F0C7FAB4
:100A400010BD00000A206B657920696E70757420F6
:100A50006465746563746564200A000030B50A46F5
:100A6000116814795379002C01D1416106E0012C01
:100A700001D1016102E0022C00D18161012B09D179
:100A8000056A0D430562C56A0D43C562456B0D439A
:100A9000456322E0022B09D1056A0D430562C56A50
:100AA0000D43C562056B0D43056316E0032B09D1A9
:100AB000056A0D430562856A0D438562456B0D43EA
:100AC00045630AE0042B08D1056A0D430562056BF6
:100AD0000D430563856A0D43856230BD826B0A4311
:100AE000826370471FB501200290002168460173A0
:100AF0000321417302A901208007FFF7AFFF042003
:100B000000F090F902200090012168460171002157
:100B10004171694601208007FFF7A0FF1FBD00BF9C
:100B2000FEE700000748406902210840C043002852
:100B300004D005480088401C034908800120014971
:100B40000861704700A000506000003000BFFEE761
:100B50007047000003488168012901D101207047D6
:100B60000020FCE7000200621CB503200190002178
:100B7000684601704170817000F012F8FF2001306A
:100B800000F006F80120400200F002F81CBD000051
:100B9000024909690143014A1161704700B00050E0
:100BA000002100220B4B1A619A600278012A00D1C1
:100BB00011434278012A01D1022211438278012A8D
:100BC00001D1042211434268D2001143014A11614C
:100BD0007047000000B000507047000010B5FFF7EC
:100BE000D5FA044600F012FB002803D001200007CC
:100BF000024948602046FFF7CDFA10BD00ED00E045
:100C000012481349086000200121890708604860E4
:100C1000086148618861C861086248628862C86288
:100C200008634863886300BF0DE00021012292073A
:100C30001315D2188300D15001229207D314D21871
:100C40008300D150401CFF28EFDD704740597307E7
:100C50000000003010B50520000700F013F8002850
:100C600008D005480068401C0349086005200007BB
:100C700000F005F810BD0000500000307047012161
:100C8000C16070470146C868C0B270470022026068
:100C900042608260C2600A6842600A6882600268DC
:100CA00001231A4302600A79012A03D1026808234A
:100CB0001A4302604A79002A03D1026802239A4348
:100CC00002604A79012A04D1026802231A430260B1
:100CD00006E04A79022A03D1026804231A4302601B
:100CE000704770471CB508480068009000216846AE
:100CF000417101210171694605200007FFF7C6FF18
:100D0000022000F08FF81CBD0000003010B508482C
:100D100000F014F800280AD0054800F00CF8044848
:100D200000F052F804462146014800F057F810BD83
:100D30000040005070470221C16070470146C868FA
:100D4000022210404008704770B504460D46002648
:100D5000002020606060A060E060206128790128A8
:100D600000D106436879012801D102200643A87901
:100D7000012801D104200643E879012801D1082087
:100D80000643287A012801D110200643687A0128F9
:100D900001D120200643A87A012801D14020064332
:100DA0000020A060A660074829680068FFF744FAA1
:100DB000206160680C210840002801D0002070BD2F
:100DC0000120FCE700000030014600BF4868022215
:100DD00010400028FAD00868C0B2704700BF4268CF
:100DE000D207D20F002AFAD1016070470EB5012157
:100DF000684601714171002181710121C171002199
:100E000001720121417200218172E12040020090B3
:100E100069460348FFF798FF002000F003F80EBD75
:100E200000400050002805DBC206D20E012191408F
:100E3000014A11607047000000E100E0FFF7E0FEAA
:100E4000FFF750FFFFF74EFEFFF7D0FFFFF78CFED6
:100E50000DA000F0BCF812E0FFF77CFE012808D1DD
:100E60000FA000F0B4F81548816815A000F0AFF8A5
:100E700006E016A000F0ABF8C820FFF7CEFDEBE7C8
:100E800000BF00BFFEE700000A2D2D2D2052544F59
:100E900053207374617274696E67202D2D2D0A00C2
:100EA0000A2D2D2D20534420696E697420737563BB
:100EB000636573732D2D2D0A00000000000200628F
:100EC0000A202025782020200A0000000A2D2D2D40
:100ED00020534420696E6974206661696C65642DD5
:100EE0002D2D0A0010B50446002C03D1302000F04F
:100EF00003F910BD0A21204600F03AF800BFF8E7D8
:100F0000F8B504460D460020009020462946FFF71C
:100F1000EDFB00900098FFF7E5FF2E2000F0ECF8C5
:100F20000098FFF742FC064622462B46FFF7C6FB19
:100F300004460D460022064B20462946FFF738FCA2
:100F40000646FFF7D3FB00900098FFF7CBFFF8BDF4
:100F500080842E4110B50446002C03D1302000F0CF
:100F6000CBF810BD1021204600F002F800BFF8E7D2
:100F700070B504460D46002C00D170BD29462046B0
:100F8000FFF75AF906462946FFF7F2FF29462046A1
:100F9000FFF752F903A0465C304600F0ADF800BF01
:100FA000EBE700003031323334353637383961629F
:100FB000636465660000000010B5044603E0207815
:100FC000641C00F099F820780028F8D110BD0FB407
:100FD00038B5002405A80090049C69E02078092811
:100FE0005CD00A2856D025285CD1607864281FD0B0
:100FF0000CDC532835D004DC252841D0442843D1CB
:1010000017E0582835D063283ED108E0662818D06C
:1010100069280FD0732823D0782835D128E000998B
:101020000A78091DD0B2009100F066F8641C2FE028
:1010300000BF00BF009901C90091FFF753FF641C76
:1010400026E00098C01DC008C000009002684168FA
:10105000009D083510460095FFF752FF641C17E00D
:1010600000BF009901C90091FFF7A6FF641C0FE0C3
:1010700000BF009901C90091FFF76CFF641C07E0F5
:10108000252000F039F803E0207800F035F800BFA3
:1010900000BF0BE00A2000F02FF807E0092000F065
:1010A0002BF803E0207800F027F800BF00BF641C95
:1010B0002078002892D1009038BC08BC04B01847B2
:1010C0000B4909680968002901D1012100E00021CC
:1010D000002904D00021C943064A116006E00449F2
:1010E0000968C968C868034A416811607047000010
:1010F000080000303400003010B504460A2C02D13C
:101100000D20FFF7F9FF21460148FFF767FE10BDEC
:101110000040005001460A694B68886898608B68F7
:10112000486858605068884201D188685060002043
:1011300008611068401E1060106870477047704763
:1011400042684A6093688B60936859609160086157
:1011500003685B1C0360704770B526480068002870
:1011600003D001202449086043E0002022490860A0
:1011700022480068046B224D29462068884208D125
:101180006068884205D1A068884202D1E068884240
:1011900005D01A48016834310068FFF7CFFF1948BD
:1011A000016805E0002902D172B600BFFEE7491EC2
:1011B00014204843144A1058002801D1012000E0AF
:1011C00000200028EED114224A430F4BD018426869
:1011D00052684260024608324368934202D1426834
:1011E000526842604268D268044B1A600548016048
:1011F00000BF70BD3C00003028000030040000300B
:10120000A5A5A5A51C00003074000030F8B500208D
:10121000009046480068002878D145480068451C81
:1012200043480560002D1CD1424800680068002832
:1012300001D1012000E00020002802D172B600BFD9
:10124000FEE73C4807683C4800683A4908603A486D
:1012500007603A480068401C38490860FFF730FFD3
:1012600000BF3748006885423DD300BF3148006861
:101270000068002801D1012000E00020002804D0EF
:101280000020C0432E4908602CE02A480068C0684E
:10129000C4686668B54202D22948066022E0201D73
:1012A000FFF738FFA06A002803D020461830FFF768
:1012B00031FF2449E06A0968884202D92149E06A7D
:1012C00008601422E16A51431F4A8818211DFFF764
:1012D00037FF1E49E06A0968C96A8842C6D30120FF
:1012E0000090C3E700BF19480068C06A1421484352
:1012F00015490858012801D90120009014480068B8
:10130000002801D1FFF71BFF07E0FFE71048006846
:10131000401C0F490860FFF712FF0E4800680028C4
:1013200001D0012000900098F8BD00003C00003082
:1013300018000030080000300C0000302C00003095
:10134000340000301C000030740000300400003015
:101350002400003028000030781300100000003016
:101360007400000004010010EC1300107400003041
:10137000CC0100002001001040597307000000005C
:10138000000000000000000000000000000000005D
:10139000000000000000000000000000000000004D
:1013A000000000000000000000000000000000003D
:1013B0000000000000000000080000000000000025
:1013C000000000000000000000000000000000001D
:1013D000000000000000000000000000000000000D
:0C13E00000000000000000000000000001
:04000005100000C126
:00000001FF
