:020000041000EA
:10000000D00B0030510100106B090010C706001022
:1000100000000000000000000000000000000000E0
:10002000000000000000000000000000050A0010B1
:1000300000000000000000000F010010090A00107D
:10004000290B0010510B00107D0A0010A10A0010AE
:10005000E90500106D010010E5050010C90600104B
:10006000C10500106D09001077010010C3050010D4
:10007000FD0A00107D0100107F01001081010010B9
:100080008301001085010010870100108901001014
:100090008B0100108D0100108F01001091010010E4
:1000A00093010010950100109701001099010010B4
:1000B0009B0100109D0100109F010010A101001084
:1000C0000448854600F06AFA00480047A11900106C
:1000D000C046C046D00B0030084B19680868203075
:1000E00080F30988022080F31488BFF36F8F3FBC30
:1000F000AE4608BC04BC62B61847000004000030DD
:10010000EFF3108072B6704780F310887047EFF3FA
:1001100009800E4B1A6820381060F0C044464D46E6
:1001200056465F46F0C008B572B602F06FF862B688
:100130000CBC116808681030F0C8A046A946B24649
:10014000BB4680F309882038F0C818470400003007
:100150001448804714480047FEE7FEE7FEE7FEE745
:10016000FEE7FEE7FEE7FEE7FEE7FEE7FEE7FEE767
:10017000FEE7FEE7FEE7FEE7FEE7FEE7FEE7FEE757
:10018000FEE7FEE7FEE7FEE7FEE7FEE7FEE7FEE747
:10019000FEE7FEE7FEE7FEE7FEE7FEE7FEE7FEE737
:1001A000FEE700002D0A0010C100001030B50B461C
:1001B000014600202022012409E00D46D5409D4241
:1001C00005D31D469540491B2546954040191546C7
:1001D000521E002DF1DC30BDF0B5074608465840F0
:1001E00087B0C00F049048000E46590040084908E7
:1001F000BC1A884105D2384631461E4617460B4682
:1002000002465800400810434DD0300D0390400581
:100210005900400D490D0590401A0290402873DAAC
:1002200018030121000B090508430190049800926E
:10023000002806D01146019A4942002090410091C1
:100240000190029840210A1A0199009800F012F9D1
:1002500005460C466B4607CB00F02DF9C0197141DD
:10026000039A0E0D0023D71756401A467A401643BC
:1002700044D0049A002A2DD0029A012A039A15DC50
:100280001205C01A914101263605001C7141D20F9A
:10029000059ED2070093019202962A46234600F05B
:1002A0002AF907B0F0BD38463146FAE71605234A69
:1002B0000F46B218C01AB74101210905001C4F4171
:1002C00000187F41114618187941E20F10436D194B
:1002D000644113E0E2076D0815436408C207144344
:1002E000039A01261205C01A91413605001C71417E
:1002F000CE07400830434908C01851412A462346DA
:1003000000F0ECF8CDE7FFE7049801224000C117A8
:10031000121A00238B4104983146C417381AA141A0
:10032000EEE730B40124E407634030BC54E730B456
:100330000124E407614030BC4EE700000000E0FF0C
:10034000F0B51FB488B00B9909980024484009996A
:10035000C00F490049080991C0070B990090490056
:1003600049080B9109990898A64608431CD00B9997
:100370000A98084318D0099801244000420D48000B
:10038000410D099824050003000B204309900B98A8
:100390000003000B20430B9050181C49401800220A
:1003A00001901446104605E0002001460DB0F0BD56
:1003B000032801DA034600E003239C46C11A0AAE73
:1003C0000AE05F0008ADED5B4F00F75B7D4300275F
:1003D000AA187C41491C5B1E6145F2DD410004AB5B
:1003E0005A522104120C0A43240C401C0828DFDB5B
:1003F000019802900099704601910090059B049A23
:100400000799069800F077F8D0E700000DFCFFFF91
:100410000EB505490291002100910A460B46019153
:1004200000F069F803B000BD3304000070B5CD0FD3
:100430004A0009030123090B1B0519430B4BED0768
:100440000024520D9A4201DA002070BD074B34336C
:100450009A4203DC9A1A00F01DF802E00449511890
:1004600088402C43F1D0404270BD0000FF030000E3
:10047000CDFBFFFF10B5202A04DB0146203A914056
:10048000002010BD914020239C1A0346E3401943ED
:10049000904010BD10B5202A04DB0846203AD04019
:1004A000002110BD0B46D340D0402024A21A914019
:1004B0000843194610BD10B5202A06DBCB170846A5
:1004C000203A1041C1170B4306E00B461341D040C0
:1004D0002024A21A91400843194610BD10B5002BE4
:1004E00008DA0024401C614192185B411A4301D193
:1004F0004008400010BDF0B51FB482B005460C00A6
:1005000003D0084600F08EFB02E000F08BFB2030A9
:100510000246009021462846FFF7ACFF049B059A4F
:1005200004460F4618431143084314D0184610439D
:100530001BD0009840210A1A18460599FFF7AAFF18
:1005400005460E46009A05990498FFF793FF084365
:1005500005D0012004E02046394607B0F0BD002058
:10056000C11705430E432C43374300990E9863058A
:10057000401A7905E40A00220C43FD0A0A3002D52C
:1005800000200146E9E70105101969410C9C0D9D09
:1005900000196941FFF7A2FFDFE70000064C0125C3
:1005A000064E05E0E36807CC2B430C3C984710341B
:1005B000B442F7D3FFF788FDD0230010F0230010DA
:1005C0007047704701B5009801E0401E0090002878
:1005D000FBD108BD01B5009801E0401E0090002845
:1005E000FBD108BD7047000010B50121880700F05D
:1005F0004DF802A001F044FC10BD00000A206B651C
:100600007920696E707574206465746563746564BF
:10061000200A00000B790A684979002B04D0012BCD
:1006200004D0022B04D004E0426102E0026100E049
:10063000826101290FD0022914D003291CD004297A
:1006400008D1016A11430162016B11430163816AA0
:10065000114381627047016A11430162C16A11430B
:10066000C1620FE0016A11430162C16A1143C162B4
:10067000016B114301637047016A11430162816A92
:1006800011438162416B114341637047826B0A439E
:10069000826370477FB501250024694600950C717F
:1006A00003204871AE073046FFF7B4FF042000F086
:1006B000D1FA0220029069460D734C7302A93046AC
:1006C000FFF7A8FF7FBDFEE70448416904494A8857
:1006D000521C4A80012101617047000000A00050B7
:1006E000400000300021C943612000060161FF2164
:1006F000F3310160002101617047F0B516460D46E7
:100700000022D243612109060A614102122000F051
:100710009AF8002820D101277F02FF2001F038FE3F
:10072000FE28FAD10024FF2001F032FE2870641C5C
:10073000A4B26D1CBC42F6D3761E3606360EECD142
:1007400000210C2000F07FF80021612000060161EB
:10075000FF2001F01DFE0020F0BDF0B5FF200026B7
:10076000F33061252D06286037462E610024FF20D6
:1007700001F00EFE0A20FFF72DFF641CE4B20A2CE4
:10078000F5D30021084600F05EF8761CF6B20A2E7A
:1007900001D90120F0BD0128E8D10024FF26AB36A5
:1007A0003146082000F04FF801460A20FFF712FFFB
:1007B000641CE4B20129F3D1FF2001F0E9FDFF2020
:1007C00001F0E6FDFF2001F0E3FDFF2001F0E0FD78
:1007D0002F61FF2001F0DCFD0126B6070021372044
:1007E00000F031F80128D5D10A20FFF7F3FE314699
:1007F000292000F028F801460A20FFF7EBFE642CC0
:1008000001D90846F0BD0029E8D13A2000F01BF8D4
:100810000028F7D1FF2001F0BBFDFF2001F0B8FD5B
:10082000FF2001F0B5FDFF2001F0B2FD2F61FF2098
:1008300001F0AEFD01214902102000F004F8022071
:1008400028600020F0BD70B50C4605460026701EDD
:100850006121090608610A20FFF7BCFE28464021F5
:10086000084301F095FD200E01F092FD2002000EDC
:1008700001F08EFD2004000E01F08AFDE0B201F0CF
:1008800087FD002D05D0082D05D0FF2001F080FD4B
:100890000BE09520FAE78720F8E70A20FFF79AFE99
:1008A0003146761CF6B2142905D8FF2001F070FD00
:1008B0000246FF28F1D0104670BDF7B50E46002164
:1008C000C94361252D06296141021920FFF7BBFFAD
:1008D000002827D101277F02FF2001F059FDFF20CA
:1008E00001F056FDFF2001F053FDFC2001F050FD0A
:1008F00000243078761C01F04BFD641CA4B2BC428D
:10090000F7D3FF2001F044FDFF2001F041FDFF205F
:1009100001F03EFDFF28FAD0C106C90E052902D01C
:1009200000212961FEBD00F023F8012813D00298B0
:10093000401E0006000E0290CED1FD2001F028FDE1
:1009400000F016F8002809D000202861FF2001F0EF
:100950001FFD0120FEBD00202861FAE700242C6164
:10096000FF2001F015FD2046FEBDFEE770470000A8
:1009700030B5084D0024FF2001F00AFD641CA4B22C
:10098000AC4201D1012030BDFF28F4D101F000FDBF
:10099000002030BDFEFF00001CB5032001900020A8
:1009A0006946087048708870684600F011F8FF20AA
:1009B000013000F005F80120400200F001F81CBDF4
:1009C00002490A6902430A617047000000B0005002
:1009D0000B4A0021116191600378012B00D10121A4
:1009E0004378012B01D1022319438378012B01D1D4
:1009F000042319434068C000084310617047000099
:100A000000B000507047000010B5FFF779FB0446B6
:100A100001F05AFC002803D0012003490007486078
:100A20002046FFF771FB10BD00ED00E030B5104926
:100A30000E480860002001218907086048600861AD
:100A400048618861C861086248628862C862086358
:100A500048638863074B084C01468A00D518286014
:100A600012191060491CFF29F7DD30BD405973078A
:100A700000000030000400400008004010B50524CC
:100A80002407204600F010F8002806D003494868E3
:100A9000401C4860204600F004F810BD40000030C3
:100AA00070470121C1607047C068C0B27047002222
:100AB000026042608260C2600A6842600A688260C6
:100AC000026801231A4302600A79012A03D10268ED
:100AD00008231A4302604B790222002B02D10368DB
:100AE000934303604979012906D0022903D10168A3
:100AF00004221143016070470168FAE77047000063
:100B00001CB5084800210068009068464171012129
:100B10000171052069460007FFF7C9FF022000F0B8
:100B200099F81CBD0000003010B5084C204600F0BC
:100B300013F8002809D0204600F00BF8204600F0FA
:100B40004DF80146204600F04FF810BD004000501F
:100B500070470221C1607047C0688007C00F7047AE
:100B600010B504460022104622606260A260E26076
:100B700022610B79012B00D101224B79012B01D18C
:100B800002231A438B79012B01D104231A43CB7919
:100B9000012B01D108231A430B7A012B01D1102319
:100BA0001A434B7A012B01D120231A438B7A012B54
:100BB00001D140231A43A060A26007480968006879
:100BC000FFF7F4FA206160680007800F01D0002071
:100BD00010BD012010BD00000000003041688907F1
:100BE000FCD50068C0B270474268D207FCD10160F2
:100BF000704700000EB501206A4610715071002147
:100C00009171D071117250729172E1204002009086
:100C100069460348FFF7A4FF002000F01BF80EBD53
:100C2000004000502021020C01D010211046020A81
:100C300001D010460839020901D01046091F820868
:100C400001D01046891E420801D0881E7047081A3C
:100C500070470000002805DBC106C90E012088404E
:100C6000014908607047000000E100E002E008C8A8
:100C7000121F08C1002AFAD170477047002001E016
:100C800001C1121F002AFBD170470000F8B50446CD
:100C90000020E070401EE062204601F07DF8002850
:100CA00001D00420F8BD2348201800F072FE26462B
:100CB00005462036307C204FEB2803D0E92801D0B0
:100CC000E82830D1BD4207D1204608221BA182303E
:100CD00000F024FF0028E5D020463B3000F059FE0C
:100CE000411E08421FD10121490288421BD388427C
:100CF00019D8707F002816D0411E084213D1402019
:100D0000005D012801D002280DD12046413000F0BD
:100D100040FE002807D02046463000F03AFE00286A
:100D200001D00020F8BDBD4201D10220F8BD032052
:100D3000F8BD00002E02000055AA000046415433C1
:100D400032202020000000004269891E921E8A4243
:100D500001D800207047826A4089484310187047C4
:100D6000F3B581B001980F00066805D000F07BFD57
:100D7000022809D20120FEBDF468002C02D070695F
:100D8000A04207D8012405E0411CF4D071698142DA
:100D9000F1D83C4630690028EDD0BC4218D17069CA
:100DA000651CA84200D802252946019800F05BFD89
:100DB0000128E0D0411CDED0002807D0F0680228CE
:100DC00006D37169814203D9044601E0002D15D193
:100DD000254670696D1CA84202D80225022C0BD34F
:100DE0002946019800F03FFD002807D00128C2D015
:100DF000411CC0D0A542ECD10020FEBD0024E4433C
:100E000022462946304601F0A3F8002808D1002FD9
:100E10000CD02A463946304601F09AF8002805D011
:100E2000012800D0012425462846FEBDF5607169E1
:100E30003069891E884201D8401E30613079012115
:100E400008433071F0E70000F3B581B0029920301B
:100E50000D6804460B22202100F075FE002001469B
:100E6000082222E06A5C491C202A13D92F2A0CD0C0
:100E70005C2A0AD02E2A01D0604518D360460B2880
:100E800038D02E2A36D10EE0491C6B5C2F2BFBD0BC
:100E90005C2BF9D06B18029900280B602AD02078BF
:100EA000E52833D034E008200B229446DAE7812A83
:100EB00017D39F2A03D91346E03B1C2B11D86B5C38
:100EC000491C402B16D37E2B03D91E46803E7C2E18
:100ED00010D86646761EB0420CD22254401C2354D1
:100EE00012E00FA3164600E05B1C1F78002F03D012
:100EF000B742F9D10620FEBD1346613B192B02D83B
:100F00003246203AD2B22254401CABE70520207072
:100F1000202A01D8042000E00020E0720020FEBD5D
:100F2000222A2B2C3A3B3C3D3E3F5B5D7C7F000000
:100F3000F8B50C46054601F023F9002820D12146DA
:100F40002846FFF701FF0646E862284601223030B6
:100F500052020021044600F0F6FD0127009400240F
:100F600000E0E4196889A04207D9321968783B4645
:100F7000009900F008F90028F3D06889A04201D058
:100F80000120F8BD0020F8BDF3B5066904460768E6
:100F900001204005203681B0864235D2A069002864
:100FA00002D0F10502D03CE00420FEBD401CA0614F
:100FB0006169002924D07A89700A521E104230D10A
:100FC000204600F050FC0546012822D9681C15D0A7
:100FD0007869A8421FD80298002815D02046616978
:100FE000FFF7BEFE050012D0012D12D0681C05D0FF
:100FF00029463846FFF79CFF00280CD00120FEBD93
:101000003989700988420CD30020A061CCE7072001
:10101000FEBD0220FEBD294638466561FFF794FEFD
:10102000A061F005C00DC01930302661E0610020DC
:10103000FEBD70B504460021066800F02FF80FE0F1
:101040003046A16900F0A8FE00280BD1E0690078C5
:10105000E5280AD0002808D001212046FFF794FF98
:101060000028EDD0042807D007E03046A16900F041
:1010700093FE050003D00FE0072005460CE0202278
:101080000021E06900F05FFD21460B222031E0697C
:1010900000F050FD0120F070284670BDF8B50546FF
:1010A0000768012040050E46814238D2F00636D14D
:1010B0002E61AC68002C05D13878032806D37C6AF1
:1010C000002C03D078894002009012E03989700921
:1010D000884224D2786A12E0284600F0C4FB044615
:1010E000401C1AD0022C1AD37869A04217D9009854
:1010F000361A86422146EFD23846FFF725FE6C614C
:10110000A86100280BD0710A4018A861F005C00D35
:10111000C0193030E8610020F8BD0120F8BD022080
:10112000F8BD10B5002805D1FFF7DCFAFFF715FB75
:10113000002800D0012010BD002801D004207047F5
:10114000012904D0022906D0032909D106E0012093
:10115000C002106004E00120400200E00120108085
:101160000020704710B51446002801D0012010BDA2
:10117000DAB22046FFF7C1FA10BD0146012000296E
:1011800000D10020704710B51446002801D001207E
:1011900010BDDAB22046FFF790FB10BD38B504460B
:1011A00000F0BAF9002807D16946204601F070F82E
:1011B000002801D10021216038BD000017B581B0A1
:1011C000029800901446684600F0AAFB002802DA54
:1011D0000B2004B010BD0B49820088580023002862
:1011E00000D003700198002800D003708850002CB4
:1011F00005D0002201A902A800F0ACFCE9E700201C
:10120000E7E7000064000030F7B592B0050009D0B0
:101210009606B60E32460BA913A800F09BFC0400FC
:1012200003D0C5E0092015B0F0BD0B9800906846CA
:10123000139900F0B5FA040004D108A8C07A00069A
:1012400000D50624F006400F4FD0002C0AD0042C05
:1012500003D16846FFF7EDFE044608200643002C44
:101260000BD0A5E0684680791121084201D00724FF
:101270009EE0700701D508249AE0300745D54F4F0E
:10128000079839460E3000F025FF0798394616308A
:1012900000F020FF07990B9800F05DFB07460799C7
:1012A0002020C872002207990B9800F001FF0798D0
:1012B00000211C3000F00EFF01200B99002FC87098
:1012C00021D0C86A0D9000223946684600F0B7FE6A
:1012D00004006DD10D990B9800F05EFD04467F1E51
:1012E0000B98002CC7600CD062E0002C60D16846DF
:1012F0008079C10601D504245AE0B10701D5C007A1
:10130000B5D1300701D5402006430B98C16A296248
:1013100007996962079900F01EFBA86007981C30C6
:1013200000F02CFBE8600B9828600B980122C08825
:10133000A88000202E746874E86101466861284620
:10134000283052020E9000F0FEFBB00632D5EE6857
:10135000002E2FD06E610B98A968408947020FE0DC
:10136000284600F080FA0146012800D80224481CD3
:1013700003D0F61B002C03D004E00124F61B01E08F
:10138000BE42EDD8A961002C12D1F00512D00B9805
:10139000FFF7DAFC00280FD0710A0A18EA610B98EF
:1013A000012340780E99FFF7DDFE002802D00124CA
:1013B00000202860204636E70224F9E70000A14A11
:1013C000FFB589B0044601910C98002101601546D3
:1013D00004A9204600F05CFF002811D1607C0028A1
:1013E0000ED1207CC0070AD06169E0680127401A4D
:1013F000214628310591854200D9054686E007201F
:101400000DB0F0BD6069C10565D10499460A4989EE
:10141000491E0E400AD1002823D02046A16900F0C1
:1014200022FA02281FD3411C50D0A061A169049860
:10143000FFF78AFC002816D080190090680A0390F4
:1014400028D03218049841898A4201D9891B039116
:101450004078039B009A0199FFF784FE002835D15C
:1014600004E0A068DDE702206074C9E7207C000684
:101470000DD5E1690098081A0399884207D2410204
:101480000198012208185202059900F053FB0398B5
:1014900046022FE0E269009882421AD0207C0006C2
:1014A0000BD50498012340780599FFF76CFE0028BE
:1014B0000CD1207C4006400E207404980123407813
:1014C000009A0599FFF74EFE002802D067740120AC
:1014D00096E70098E061A08A0121C005C00D49028D
:1014E0000E1AAE4200D92E46011932462831019813
:1014F00000F020FB0C98AD1B006881190C9801606E
:10150000019880190190606980196061002D00D0F8
:1015100078E7002074E70000F8B50446694600F05B
:10152000B7FE00280FD1217C4A060CD508060FD53E
:1015300000982146E269407801232831FFF723FE15
:10154000002801D00120F8BD207C4006400E207408
:10155000144E216A009800F01FFC0028F3D1656A40
:101560002021E87A0843E8722946A268206800F042
:101570009FFD28461C30E16800F0ACFD284631464E
:10158000163000F0A7FD28460021123000F0AAFD19
:1015900000980121C17000F0A9FD217CBF221140FB
:1015A0002174F8BD0000A14AFFB589B0019104463D
:1015B0000C9900200860154605A9204600F068FE39
:1015C000002806D1607C002803D1207C800702D44B
:1015D00007200DB0F0BD606921462831421901276E
:1015E0000391824200D2C5439EE06069C10575D176
:1015F0000599460A4989491E0E4015D1002801D097
:10160000A16903E0A068002805D100212046FFF76A
:10161000A7FB00287ED0012831D0411C58D0A06102
:10162000A168002900D1A060207C00060CD5059897
:10163000E269407801230399FFF7A5FD002847D10F
:10164000207C4006400E2074A1690598FFF77CFBC2
:10165000002814D080190090680A049027D032180E
:10166000059841898A4201D9891B04914078049BDD
:10167000009A0199FFF787FD002829D102E0022096
:101680006074A6E7E1690098081A049988420BD2B1
:1016900041020198012209185202039800F04AFA07
:1016A000207C4006400E20740498460229E0E1693F
:1016B0000098814210D0E168606988420CD2059898
:1016C00001234078009A0399FFF74CFD002803D0CE
:1016D000677401207DE701E00098E061A08A0121A4
:1016E000C005C00D49020E1AAE4200D92E4600199F
:1016F00032462830019900F01DFA207C80210843F1
:1017000020740C98AD1B006881190C980160019839
:10171000801900E00BE00190606980196061E16868
:10172000884200D80846E060002D00D05DE7217CAB
:1017300040200143217400204BE7F0B50C4685B0F2
:1017400007460021FFF7A2FA022803D0032821D27E
:10175000002C1FD000256E462801C019FF30F7303D
:1017600000F00CF9A9006D1C7050042DF4D3002C6E
:1017700001D0651E00E00025A800315800290BD0DB
:101780003846FFF783FA002C04D1022802D36D1CDF
:10179000042DF1D305B0F0BD0320002CF7D0F9E7FC
:1017A000F3B581B005460768029801E0401C02903D
:1017B00001782F29FAD05C29F8D00020A86002987F
:1017C0002E4600782036202806D28020F072002194
:1017D0002846FFF763FCFEBD02A92846FFF734FB4D
:1017E0000028F8D12868009000212846FFF756FC11
:1017F00000281ED1A969009800F0CEFA040017D184
:10180000E869017800291DD0C17A8A06920EAA7172
:10181000C17A090706D429460B22203100F07EF94F
:10182000002805D000212846FFF7AEFB0400E1D0D8
:101830002046F17A002807D00428CCD14907CAD421
:101840000520FEBD0424F3E74907FAD4A879C006B1
:10185000F6D5288AC005C00DC1193846303100F0D0
:101860007AF8A860B8E7F8B504680D4602290BD3EA
:101870006069A84208D900262078F643012806D0DE
:1018800002282CD003283AD001263046F8BD68083B
:101890004719206A790A4118204600F07DFA00288D
:1018A000F3D1F805C00D00192030007C00907F1C9A
:1018B000206A790A4118204600F06EFA0028E4D127
:1018C000F805C00D00192030007C00990002084383
:1018D000E90701D00609D8E70605360DD5E7206AE5
:1018E000290A4118204600F057FA0028CDD12806D1
:1018F000C00D0019303000F04CF80646C5E7206AEC
:10190000E9094118204600F047FA0028BDD16806D1
:10191000C00D0019303000F031F806013609B4E787
:1019200010B5044600202268C043110010D00B7887
:10193000491C212B0DD33A2BF9D11378303B092BBD
:1019400006D8921C8A4203D1012B01DA1846216085
:1019500010BD002010BD70B5064608460D461A3071
:1019600000F017F804463078032805D128461430D3
:1019700000F00FF800040443204670BDC17882785F
:101980000902114342780902114300780902084311
:10199000704701464078097800020843704700000C
:1019A000FFF744F8FFF7ACF8FEF774FEFFF722F9F3
:1019B000FEF7F2FF012227A12748FFF7FFFB274C84
:1019C0000146207026A000F05BFA207800283DD167
:1019D0000B2228A12A48FFF717FC2070014629A0F6
:1019E00000F04EFA234614330722191D2448FFF74E
:1019F000DBFD207001462AA000F042FA2048FFF7E4
:101A0000CDFB207001462DA000F03AFA012219A169
:101A10001B48FFF7F9FB207001462FA000F030FAB9
:101A2000234601221433920231491548FFF7C8FCBE
:101A3000207001462E4A2FA000F022FA1048FFF72E
:101A4000ADFB207001461DA000F01AFAC820FEF779
:101A5000B9FDFBE7303A0000780600304000003066
:101A60000D0A206D6B667320726573203D2025641E
:101A7000200D0A00303A746573742E747874000077
:101A8000A80800300D0A20665F6F70656E20202068
:101A90002020726573203D2025640D0A000000009F
:101AA0000D0A20665F7772697465202020207265B8
:101AB00073203D2025640D0A000000000D0A2066F9
:101AC0005F636C6F736520202020726573203D205A
:101AD00025640D0A000000000D0A20665F6F706526
:101AE0006E20202020726573203D2025640D0A00A1
:101AF000300100300D0A20665F72656164207265F6
:101B000073203D202564202C20726561645F62751E
:101B100066203D2025730D0A0000000010B50378F3
:101B20000C78401C1B1B491C521E01D0002BF6D008
:101B3000184610BD002A05D00B780370401C491CC4
:101B4000521EF9D17047C9B20170401C521EFBD120
:101B500070470000F7B584B000270E460F60FFF70E
:101B6000DFFE050002D50B2007B0F0BD8249A800BA
:101B70000C58002C15D03460069846082078760062
:101B8000002804D06078FFF7F8FAC1070BD00020D6
:101B90002070E8B26070FFF7C4FAC10709D00320D3
:101BA000E2E70C20E0E7002E01D0400705D400203A
:101BB000DAE7002E03D0400701D50A20D4E7002140
:101BC0002046FFF7BAFD042811D002287ED2204615
:101BD0003B30E66AFFF7DDFEC11FFF39FA3977D1E6
:101BE00020464630FFF7D5FE010002D006E0012076
:101BF000BAE720465430FFF7C1FE01464020A161FC
:101C0000005DA070012801D0022861D148430190F5
:101C10003D20005D608100285AD0411E084257D106
:101C200020464130FFF7B5FE2081000750D1204605
:101C30004330FFF7AEFE050004D120465030FFF7D9
:101C40009DFE054620463E30FFF7A3FE07003FD02D
:101C500001983918208902900009081800908542DF
:101C600036D36189281AFEF7A1FA002830D04349FB
:101C70000025884200D803254149884200D8022522
:101C80004049884201D8012501E0002D20D0F119FA
:101C9000E661801C21626061009AB218A262032D85
:101CA00018D0029A002A13D0019A89186162022D75
:101CB00021D041004118C0074908C00F0818FF3063
:101CC000FF300130A169400A814200E000E014D2F7
:101CD0000D2049E720465A30FFF75BFE0028F7D178
:101CE00020890028F4D120465C30FFF747FE60626F
:101CF00060698000E3E74000E1E70020C043206125
:101D0000E06080202071032D2ED120466030FFF747
:101D100040FE012828D1711C204600F03DF8002823
:101D200022D1207118482018FFF733FE1749884246
:101D30001AD120463030FFF721FE1549884213D1D1
:101D4000852080002018FFF719FE124988420BD128
:101D50004320C0002018FFF711FE2061872080007B
:101D60002018FFF70BFEE06003492570091F088863
:101D7000401C0880E0801AE764000030F5FFFF0F88
:101D8000F5FF0000F50F00002E02000055AA00002C
:101D9000525261417272416170B50446C06A0D468B
:101DA0000026A84210D0204600F0EAF906000BD128
:101DB0002146607801232A463031FFF7D3F9002805
:101DC00001D0751E0126E562304670BD10B50028B1
:101DD00003D00A2100F030F810BD302000F0AAF83E
:101DE00010BD000070B504460D46FEF71FFB064609
:101DF000FFF7ECFF2E2000F09DF83046FEF708FBC1
:101E000022462B46FEF793FA0022044BFEF798FA7F
:101E1000FEF70CFBFFF7DAFF70BD000080842E4157
:101E200010B5002803D0102100F006F810BD3020B6
:101E300000F080F810BD000070B50D46002809D0F4
:101E4000FEF7B4F90C462946FFF7F6FF02A0005D45
:101E500000F070F870BD0000303132333435363761
:101E600038396162636465660000000010B504469D
:101E700002E0641C00F05EF820780028F9D110BD63
:101E80000FB470B505AC049D3CE0092837D00A2892
:101E900035D0252833D1697864291BD00CDC53292F
:101EA00023D004DC252929D0442928D112E058293F
:101EB0001FD0632923D108E066290FD0692909D0F2
:101EC000732912D078291AD113E02078241D00F04C
:101ED00031F811E001CCFFF779FF0DE0E41DE408D3
:101EE000E40003CCFFF77EFF06E001CCFFF7BEFF66
:101EF00002E001CCFFF794FF6D1C02E0252000F00A
:101F000019F86D1C28780028BFD170BC08BC04B03B
:101F1000184700000648416B0968002905D0416B4D
:101F2000C968C9684968816270470021C943FAE7F6
:101F30000400003010B504460A2802D10D20FFF736
:101F4000F9FF21460148FEF74FFE10BD004000504A
:101F5000F8B5022617460D46044602296DD360697E
:101F6000A8426AD92078012804D002283CD003284E
:101F700063D149E0680840190090216A400A0918B5
:101F80002046FFF709FF060057D100980099C005C9
:101F9000C00D491C001930300091E90705D00178C7
:101FA0000907090F3A01114300E039460170012089
:101FB000E0700098216A400A09182046FFF7ECFEFD
:101FC00006003AD10098C005C00D00193030E9076D
:101FD00002D03905090E05E001783A050909090121
:101FE000120F1143017026E0206A290A4118204689
:101FF000FFF7D2FE060020D12806C00D0019B9B2A5
:10200000303000F06FF816E0206AE90941182046E8
:10201000FFF7C2FE060010D16806C00D001930306F
:102020000546FFF7ABFC010F380109070009014322
:10203000284600F04FF80120E0703046F8BDF8B5B2
:10204000056813460E46074602292DD36869B0423B
:102050002AD9002B07D00022D24319462846FFF781
:1020600077FF00281FD131463846FFF7FCFB0400FC
:1020700018D0012C18D0601C18D0002231462846F8
:10208000FFF766FF00280ED1696928698A1E904211
:1020900005D2401C28612879012210432871264668
:1020A000B142E0D80020F8BD0220F8BD0120F8BD03
:1020B00070B50C4606462046154691B21A3000F01F
:1020C00011F83078032804D12046290C143000F090
:1020D00009F870BD0170090A4170090A8170090A86
:1020E000C17070470170090A4170704770B50446AD
:1020F00000F046F8050039D1207803282ED1207948
:1021000001282BD142022046303000210646FFF73D
:102110001AFD184816492018FFF7E4FF1649304603
:10212000FFF7D8FF8520800014492018FFF7D2FF61
:102130004320C00020182169FFF7CCFF87208000D2
:102140002018E168FFF7C6FFE2690123521CE26232
:1021500060783146FFF717F8002020710022607880
:102160001146FEF7E9FF002800D00125284670BD82
:1021700055AA00002E020000525261417272416164
:1021800070B50446C078002500280AD021463031B9
:10219000607801230E46E26AFEF7F5FF002802D0C0
:1021A0000125284670BD0020E070E16A206A0A1A05
:1021B000A0698242F5D2A278022AF2D10A18607888
:1021C00001233146FEF7DFFFEBE7436882680169D0
:1021D0009A60836842685A604A68824201D1826884
:1021E0004A60002202610868401E0860704770471C
:1021F000704742684A6093688B6093685960916049
:1022000008610168491C01607047000010B51D4C51
:10221000206B002802D00120E06110BD0020E061A9
:102220002068016B18480A68824208D14A688242D5
:1022300005D18A68824202D1C968814204D02168EE
:1022400020683431FFF7D3FF2069104902E00028ED
:1022500015D0401E142242438A58002AF7D0142277
:10226000424351184A680B46526808334A609A4202
:1022700001D152684A60D1682160206110BD72B6F8
:10228000FEE7000004000030A5A5A5A56800003009
:1022900070B509250E46044600280ED02068002897
:1022A0000BD00178002908D0A188C288914204D1BE
:1022B0004078FEF762FFC00703D000203060284658
:1022C00070BD00252068F9E7F8B52F4C0027206B7A
:1022D000002803D0A069401CA0614DE0E668761C90
:1022E000E6600ED1606B0068002801D072B6FEE790
:1022F000606BA16B6163A063206A401C2062FFF7E2
:1023000009FEA06A86420AD3606B0068002813D0D9
:10231000606BC068C5686868864210D2A062206899
:102320001421C06A484319490858012800D90127D7
:10233000A069002820D021E00020C043EEE7281D3E
:10234000FFF743FFA86A002803D028461830FFF79C
:102350003CFFE86A2169884200D920611421484382
:102360000A494018291DFFF744FFE86A2168C96A35
:102370008842C9D30127C7E7FFF73AFFE069002881
:1023800000D001273846F8BD040000306800003056
:1023900000B561210246090602E01420FEF71AF991
:1023A000C8680028F9D14A600848C860421C02E0A9
:1023B0001420FEF70FF9C8689042F9D0C8680028C9
:1023C00001D0002000BD8868C0B200BD22370000E7
:1023D000F023001000000030680000006C0C0010BA
:1023E0005824001068000030680B00007C0C0010BE
:1023F00040597307000000000000000000000000CA
:1024000000000000000000000000000000000000CC
:1024100000000000000000000000000000000000BC
:1024200000000000000000000000000000000000AC
:10243000000000000000000000000000000000009C
:102440000000000000000000313233343536000057
:08245000000000000000000084
:04000005100000C126
:00000001FF
