:020000041000EA
:1000000018400030150200103F0E0010590D00106E
:1000100000000000000000000000000000000000E0
:10002000000000000000000000000000311200107D
:1000300000000000000000009B010010D113001020
:10004000011500102915001049140010711400103A
:10005000390C001031020010350C00108D0D00100D
:100060001F0C0010430E00103B020010210C00106A
:10007000D714001041020010430200104502001086
:1000800047020010490200104B0200104D02001000
:100090004F020010510200105302001055020010D0
:1000A00057020010590200105B0200105D020010A0
:1000B0005F02001061020010630200106502001070
:1000C00000F002F800F03EF80CA030C80838241800
:1000D0002D18A246671EAB4654465D46AC4201D180
:1000E00000F030F87E460F3E0FCCB6460126334274
:1000F00000D0FB1AA246AB4633431847DC3300005E
:10010000FC330000103A02D378C878C1FAD85207FD
:1001100001D330C830C101D504680C6070470000BD
:100120000023002400250026103A01D378C1FBD813
:10013000520700D330C100D50B6070471FB51FBDFB
:1001400010B510BD03488546FFF7F8FF01F0DCFA53
:1001500000F056FD1840003003B4FFF7F1FF03BC78
:1001600000F056FD084B19680868203080F30988B4
:10017000022080F31488BFF36F8F3FBCAE4608BCEB
:1001800004BC62B61847000004000030EFF3108092
:1001900072B6704780F310887047EFF309800E4BFA
:1001A0001A6820381060F0C044464D4656465F46F7
:1001B000F0C008B572B602F02BFC62B60CBC116838
:1001C00008681030F0C8A046A946B246BB4680F386
:1001D00009882038F0C818470400003070B505467B
:1001E0000C46164602E00FCC0FC5103E102EFAD278
:1001F000082E02D303CC03C5083E042E07D301CC3E
:1002000001C5361F03E021782970641C6D1C761E21
:10021000F9D270BD1448804714480047FEE7FEE756
:10022000FEE7FEE7FEE7FEE7FEE7FEE7FEE7FEE7A6
:10023000FEE7FEE7FEE7FEE7FEE7FEE7FEE7FEE796
:10024000FEE7FEE7FEE7FEE7FEE7FEE7FEE7FEE786
:10025000FEE7FEE7FEE7FEE7FEE7FEE7FEE7FEE776
:10026000FEE7FEE7FEE70000F5130010C1000010F6
:10027000034610B50B439B070FD1042A0DD308C8C2
:1002800010C9121FA342F8D018BA21BA884201D966
:10029000012010BD0020C04310BD002A03D0D307A9
:1002A00003D0521C07E0002010BD03780C78401CDE
:1002B000491C1B1B07D103780C78401C491C1B1BD5
:1002C00001D1921EF1D1184610BD00000346F0B5D1
:1002D0000B439B072DD1244DEF01042A29D308C8D5
:1002E00010C95E1B9E43121F3E4017D0D8B2E1B228
:1002F000401A3106014310D198B2A1B2401A31041C
:1003000001430AD118022102000A090A401A3102E7
:10031000014302D1180E210E401AF0BDA342DCD0D9
:1003200018BA21BA884201D90120F0BD0020C0438B
:10033000F0BD002A01D10020F0BD03780C78401CEC
:10034000491C002B0DD0A3420BD1521E09D00378BB
:100350000C78401C491C002B03D0A34201D1521E33
:10036000EBD1181BF0BD000001010101F8B5042A12
:100370002CD3830712D00B78491C0370401C521EEB
:1003800083070BD00B78491C0370401C521E830757
:1003900004D00B78491C0370401C521E8B079B0F26
:1003A00005D0C91ADF002023DE1B08C90AE0FFF7C9
:1003B00015FFF8BD1D4608C9FD401C46B4402C433E
:1003C00010C0121F042AF5D2F308C91A521EF0D425
:1003D0000B78491C0370401C521EEAD40B78491C50
:1003E0000370401C012AE4D409780170F8BDD2B230
:1003F00010B513029A1813049A1800F0EEFB10BD02
:10040000002203098B422CD3030A8B4211D3002311
:100410009C464EE003460B433CD4002243088B42EB
:1004200031D303098B421CD3030A8B4201D3944678
:100430003FE0C3098B4201D3CB01C01A524183096B
:100440008B4201D38B01C01A524143098B4201D325
:100450004B01C01A524103098B4201D30B01C01A50
:100460005241C3088B4201D3CB00C01A52418308CA
:100470008B4201D38B00C01A524143088B4201D3F7
:100480004B00C01A5241411A00D201465241104657
:1004900070475DE0CA0F00D04942031000D34042CC
:1004A000534000229C4603098B422DD3030A8B4202
:1004B00012D3FC22890112BA030A8B420CD38901A0
:1004C00092118B4208D3890192118B4204D3890186
:1004D0003AD0921100E08909C3098B4201D3CB01C4
:1004E000C01A524183098B4201D38B01C01A524179
:1004F00043098B4201D34B01C01A524103098B427D
:1005000001D30B01C01A5241C3088B4201D3CB0067
:10051000C01A524183088B4201D38B00C01A52414A
:10052000D9D243088B4201D34B00C01A5241411A21
:1005300000D20146634652415B10104601D340424F
:10054000002B00D54942704763465B1000D3404200
:1005500001B50020C046C04602BD0000F0B50C4603
:10056000871A9C410D46861A9D4103D2C01BA141AA
:10057000D21963410D0D1F0DC94EEC1BAE435CD06B
:100580007F057F0D0026002F51D02D05AC46A943D5
:10059000DD020123ED0A1B051D4320231B1B24D470
:1005A0001746E740381871412F46E740CC199D4067
:1005B0002818314661410C0D27D161449A4013D56A
:1005C0000023401C594152000ED140084000012236
:1005D0004B005205D34207D305204007C14201D545
:1005E000B04900E0B0493046F0BD6B00002A00D0B1
:1005F00001229A181F23203C1B1B01D5002302E077
:10060000E540281871410C0DD7D0012424050919A3
:10061000C407CD0740084908E40F28436144002C73
:10062000D5D00024401C61419A40D0D1CDE76A0565
:10063000520DD9D1C90FC907D5E79C4D4E000028EE
:1006400001D0012400E0002434195F00002A01D009
:10065000012600E00026BE19954FAC420CD8AE42F0
:100660000AD8B44206D001256D05EC42BCD0104634
:100670001946F0BD9942FCD000203946F0BDF0B5D6
:100680001FB40C460F46811A9F412546861A9D418C
:1006900006D20125ED076F40401ABC4152187B413C
:1006A000210D1E0D8D1BAC467D4D8D437ED07505F5
:1006B0006D0D7CD00D05AE46AC431B031B0B794D75
:1006C00052429D41202366469B1B14D31746F74098
:1006D000381800260090744160462F460741E419FF
:1006E00000989D402818664116D4714671189A40AA
:1006F00025D5012320E093182A466A415200002B99
:1007000000D0521C1E23203E9B1B002B61DD354177
:10071000EE1728186641E8D5001876415B1C9A4010
:1007200000D3401C4B05F3181524E34010D3002BD5
:1007300052D071467118D30FC01802D3491C05B0AE
:10074000F0BD0123DB079A42F9D140084000F6E7EB
:1007500001225205B21801D1002853D00123CC0A3E
:10076000DB029943891E002A08D1020C03D0020C37
:100770000004103902E00246002020390023550B06
:1007800005D112020823550B01D152010D23550C3E
:1007900001D112011B1DD50C01D192009B1C150D1E
:1007A00001D152005B1C2025EE1A01E02CE022E072
:1007B0000546F54015439840CA1AE1076918130524
:1007C000C918002ABBDA032040070818C10FC9075F
:1007D0000FE071466118B2E7F10740080843711055
:1007E00071444A000CD001235B059A42A7D2C90F7D
:1007F000C9070020A3E74905490D26D1002001E0E3
:100800000028F4D100219AE7284D6600002801D085
:10081000012100E0002171185F00002A01D00126AB
:1008200000E00026BE19224FA94210D8AE420ED8D1
:10083000B14208D001256D05E94206D01946A8024B
:10084000414010467BE79C4201D0214677E70020DB
:10085000394674E710B50C465C4005D50124E40721
:100860006340FFF70CFF10BDFFF778FE10BD30B4FA
:100870000C465C4004D50124E407634030BC6DE6BF
:1008800030BCFCE670B50124E40761400D465D40D4
:1008900002D4FFF763FE70BD6340FFF7F0FE70BD4A
:1008A000FF0700000000F0FF0000F07F0000E0FF05
:1008B0000000F87F30B50346CA02400D1043164DC4
:1008C000164C0A1502D02043002A06DBAA1A002A79
:1008D00012DDD040FF2A0BDC30BD5205520D01D194
:1008E00040004008AA1A07D4D0404042FF2A01DD48
:1008F000002030BD0028FCDD4A00002B01D0012083
:1009000000E00020101801225205D042F0D8C8178C
:10091000C043604030BD00001E04000000000080A5
:100920001F22030C02D10F22000402D0030E03D0B9
:1009300004E00020014670470002083A030F01D18D
:100940000001121F830F01D18000921E002801DBDD
:100950004000521E120551184205C012411810469F
:100960007047C10FC90700D04042012292071143CE
:10097000D6E701218907D3E7F0B58B4C0F0925464F
:1009800089B0BD437BD01D092646AE43FAD00E4642
:100990005E402740F60F3E43254071D0240121429E
:1009A000FBD0FF24AD19A4042D1B039501252D05B3
:1009B000DB02DB0AC9022B43C90A29431E010901D4
:1009C000040F130F050121431701880B8203914384
:1009D0002D098C46A90B1E438A039543B30B9A033A
:1009E00096433F09BA0B9403A74302962E467E43D3
:1009F0000497B6464E19D7190C46019654430597ED
:100A00007E43371B7646BF1B3601B646BE0B3619F2
:100A100000967646BC043719009C01D3641C0094F0
:100A20006400002F01D001263443029E049F7543C9
:100A300066467E430496760034196E00341900949D
:100A4000029C019E1C196643751BAE4606946546C2
:100A50004519059C05956C43594375460891691ADB
:100A60000191049E01465143A41B0491611A009C0C
:100A70000791E10605D061090122114302E072E00D
:100A80006EE06109089D00272C0A2D066918049D57
:100A90007C412A0A2D066918019D6241AC0DAD0208
:100AA0006D185441079A910D920255196141029AAD
:100AB000644658435443069B059A5A43121A131B23
:100AC0009A0E9B015B187A41010B0005C318514136
:100AD000220A200644195A419A4200D2491C012098
:100AE0004002814203D315230226F64302E0142379
:100AF0000326F6432020C51AA9401746AF40DA4026
:100B00000A4320460399D84009147318190551184F
:100B1000039A3843D2075140AC4009D00122944097
:100B200006D30022401C5141002C01D14008400056
:100B30001E4A934212D3012203989206904207DB89
:100B40000520400709181A480143C012414004E03B
:100B5000032040070818C10FC907002009B0F0BDE5
:100B60000020F107FAE705180C464C4111486D4288
:100B7000A04115D394181A465A410E486442904138
:100B80000ED301204A004005824209D35A00824216
:100B900006D35940C90F084AC90700201143DDE7B1
:100BA00000200649DAE700000000FF07FE0700000A
:100BB000FFFFFF7F0000E0FF0000F07F0000F87FF4
:100BC00001E004C0091F0429FBD28B0701D5028074
:100BD000801CC90700D00270704700290BD0C307E2
:100BE00002D00270401C491E022904D3830702D59B
:100BF0000280801C891EE3E70022EEE70022DFE787
:100C000010B50446C046C0462046FFF7A5FA10BD01
:100C100001491820ABBEFEE726000200704770476E
:100C2000704701B502E00098401E0090009800282F
:100C3000F9D108BD7047000010B5012401218807D3
:100C400000F05EF806E0641C01200006844201D337
:100C5000002407E00120800700F056F8C007C00F0D
:100C60000028F0D000BF002C03D1002003490870F9
:100C700002E001200149087010BD00007C00003036
:100C800030B50A46116814795379002C01D14161BD
:100C900006E0012C01D1016102E0022C00D181614A
:100CA000012B09D1056A0D430562C56A0D43C56272
:100CB000456B0D43456322E0022B09D1056A0D43C4
:100CC0000562C56A0D43C562056B0D43056316E0F9
:100CD000032B09D1056A0D430562856A0D438562C0
:100CE000456B0D4345630AE0042B08D1056A0D43AB
:100CF0000562056B0D430563856A0D43856230BD52
:100D0000826B0A43826370470146086870474268F5
:100D10008A434260704742680A43426070471FB589
:100D2000012002900021684601730321417302A94A
:100D300001208007FFF7A4FF042000F07BFC0220C5
:100D4000009001216846017100214171694601202E
:100D50008007FFF795FF1FBD00BFFEE710B501221A
:100D6000FF219131054800F025F8072000F062FCD2
:100D70000021072000F06AFC10BD000000A0005018
:100D80004168802211434160704700000748406974
:100D900002210840C043002804D005480088401CB8
:100DA00003490880012001490861704700A00050F4
:100DB00090000030F8B504460F461646012E03DBBE
:100DC000204600F01EF802E0204600F015F820460C
:100DD000FFF7D6FF3946204600F018F80546606850
:100DE00080210840002805D02068A9B2884201D19E
:100DF0000120F8BD0020FCE741684022914341609A
:100E000070474168402211434160704770B5054604
:100E10000E4600BF05487043014605480068FFF7CD
:100E2000EFFA401E84B22C60204670BD881300008B
:100E3000000000300146086870470160704700BF3D
:100E4000FEE7704710B50446240300F077F800F081
:100E500061F8FF20013000F041F9202000F0D6F9C0
:100E60002102080E00F0D2F92104080E00F0CEF99C
:100E7000E0B200F0CBF900F027F900F04BF810BD1C
:100E800010B50024FF20013000F028F99F2000F069
:100E9000BDF900F09BF90004044300F097F900024B
:100EA000044300F093F9044300F00EF9204610BD0E
:100EB00070B505460C461646FF20013000F00EF9CD
:100EC000032000F0A3F92102080E00F09FF921048D
:100ED000080E00F09BF9E0B200F098F903E000F092
:100EE00075F928706D1C3046711E8EB20028F6D13F
:100EF00000F0EAF870BD10B5FF20013000F0EEF808
:100F0000052000F083F900F061F9044600F0DCF8F8
:100F1000204610BD10B500BFFFF7EDFFC007C00FA2
:100F20000028F9D110BD10B5FF20013000F0D6F82F
:100F3000042000F06BF900F0C7F810BD10B5FF20D9
:100F4000013000F0CBF8062000F060F900F0BCF8AA
:100F500010BD0000F7B582B00F461646380B019061
:100F60003805000D00900121090300980C1AA642D3
:100F700000DC344649E001980103012212032548B0
:100F8000FFF796FF002508E0009840192149085C0A
:100F9000FF2800D003E0681C85B2A542F4DB00BF47
:100FA000A54216DA0198FFF74DFF002507E00298E9
:100FB000415D00984019174A1154681C85B2A5423A
:100FC000F5DB0198010301221203124800F024F816
:100FD00004E022463946029800F01EF8A64202D1EB
:100FE000FFF7A1FF12E00198401C01900020009043
:100FF0000298001902903F19301B86B201200003AD
:10100000864201DD044600E03446B4E700BF05B087
:10101000F0BD0000142F0030F8B507460E46144608
:10102000F0B2FF2101310D1AAC4200DC254612E07E
:101030002A463146384600F011F8AC4200D10BE0A8
:101040007F197619601B84B2FF200130844201DDD4
:10105000054600E02546EBE700BFF8BD70B5054644
:101060000C461646FFF76AFFFF20013000F036F805
:10107000022000F0CBF82102080E00F0C7F821048E
:10108000080E00F0C3F8E0B200F0C0F803E02878E2
:1010900000F0BCF86D1C3046711E8EB20028F6D1EF
:1010A00000F012F8FFF736FF70BD1CB5002001906C
:1010B0000021684601704170817000F06BF8FF20DC
:1010C000013000F00BF81CBD03480069FF21090244
:1010D000884301490861704700B00050024909691E
:1010E0000143014A1161704700B0005010B5002063
:1010F00006E0411C104A11540021104A1154401CB2
:101100004028F6DB402200210B48FFF723FF402256
:1011100000210A48FFF7CCFE402208490648FFF7A5
:10112000D5F8002803D106A000F015FC02E00AA0C3
:1011300000F011FC10BD0000CC2D0030302E00302E
:1011400053504920526561642064617461204F4BA3
:1011500021212121200A0000535049205265616459
:101160002064617461204552524F52212121212077
:101170000A0000000248806880210840C0097047CA
:1011800000B00050024880681021084000097047F4
:1011900000B00050002100220B4B1A619A600278C7
:1011A000012A00D111434278012A01D102221143C0
:1011B0008278012A01D1042211434268D2001143EE
:1011C000014A11617047000000B0005010B500BF27
:1011D000FFF7D8FF0128FBD000F00EF800BFFFF7A3
:1011E000C9FF0128FBD000F001F810BD01480068DC
:1011F000C0B2704700B000500348806840210843E7
:10120000014988607047000000B0005010B50446E6
:10121000204600F007F800BFFFF7B4FF0128FBD01D
:1012200010BD0000014948607047000000B0005048
:101230007047000070B5002400BF08E0A100032241
:101240005207881821460A31FFF7F7FD641C0A2C63
:10125000F4DB0BA000F07FFB00240BE0A1000322D5
:1012600052078818FFF7E6FD054629460BA000F057
:1012700072FB641C0A2CF1DB09A000F06CFB70BD52
:101280004765742042414E4B5F52414D5F4241538E
:1012900045302044617461203D2000002025640019
:1012A0000D0A000010B504461F480068401C1E4986
:1012B00008600968481E0321FFF7A2F8002931D110
:1012C00019490968481E0321FFF79AF8002802D03F
:1012D000022822D110E000230A2214A11448006839
:1012E00001F03BFD012803D012A000F034FB02E026
:1012F00019A000F030FB14E000230A221FA10C48C3
:10130000006801F02AFD012803D01EA000F023FB95
:1013100002E025A000F01FFB03E000200249086066
:1013200000BF00BF10BD0000A000003053504900B6
:101330009800003078517565756553656E6420536B
:1013400050495F5441534B204661696C2E2E2E2E1E
:101350002E2E0D0A000000007851756575655365E5
:101360006E64205350495F5441534B20537563635F
:101370006573732E2E2E2E2E2E0D0A004D454D4FC9
:101380005259000078517565756553656E64204D3E
:10139000454D4F52595F5441534B204661696C2E65
:1013A0002E2E2E2E2E0D0A0078517565756553650B
:1013B0006E64204D454D4F52595F5441534B20535D
:1013C0007563636573732E2E2E2E2E2E0D0A00006C
:1013D00010B5FEF7DBFE044601F064FE002803D0E2
:1013E00001200007024948602046FEF7D3FE10BDE9
:1013F00000ED00E012481349086000200121890730
:1014000008604860086148618861C8610862486294
:101410008862C86208634863886300BF0DE00021EA
:10142000012292071315D2188300D150012292078E
:10143000D314D2188300D150401CFF28EFDD704731
:10144000405973070000003010B50520000700F078
:1014500013F8002808D005480068401C03490860BC
:101460000520000700F005F810BD000080000030E6
:1014700070470121C16070470146C868C0B270471B
:101480000022026042608260C2600A6842600A68AC
:101490008260026801231A4302600A79012A03D19B
:1014A000026808231A4302604A79002A03D10268BD
:1014B00002239A4302604A79012A04D10268022376
:1014C0001A43026006E04A79022A03D10268042323
:1014D0001A430260704770471CB5084800680090C6
:1014E000002168464171012101716946052000070C
:1014F000FFF7C6FF022000F09DF81CBD0000003081
:1015000010B5084800F014F800280AD0054800F08B
:101510000CF8044800F052F804462146014800F057
:1015200057F810BD0040005070470221C16070475D
:101530000146C868022210404008704770B5044652
:101540000D460026002020606060A060E060206101
:101550002879012800D106436879012801D10220A9
:101560000643A879012801D104200643E87901281F
:1015700001D108200643287A012801D11020064312
:10158000687A012801D120200643A87A012801D1D8
:10159000402006430020A060A66007482968006834
:1015A000FEF72EFF206160680C210840002801D062
:1015B000002070BD0120FCE700000030014600BFA4
:1015C0004868022210400028FAD00868C0B270476C
:1015D00000BF4268D207D20F002AFAD101607047DB
:1015E0000EB501216846017141710021817101210F
:1015F000C171002101720121417200218172E1203B
:101600004002009069460348FFF798FF002000F071
:1016100011F80EBD0040005030B47446641E2578A9
:10162000641CAB4204D3635D5B00E31830BC184715
:101630001D46F8E7002805DBC206D20E01219140C5
:10164000014A11607047000000E100E010B5002879
:1016500019DB1A4A03231B02D21883089B00D258B5
:101660008307DC0EFF23A3409A438B071B0E8407DE
:10167000E40EA3401A43114B032424021B198408CF
:10168000A4001A5118E00E4A03071B0F083B9B08E1
:101690009B00D2588307DC0EFF23A3409A438B079D
:1016A0001B0E8407E40EA3401A43054B0407240FC6
:1016B000083CA408A4001A5110BD000000E100E09D
:1016C0001CED00E01CE0FF20F53001F0AFF80D4804
:1016D0000068401C0B49086008460068022804D1D5
:1016E00002214007FFF717FB0AE0064800680428BC
:1016F00006D102210007FFF70AFB0020014908601C
:10170000E1E700009C0000301CB5FFF773FEFFF717
:10171000E3FEFFF704FBFFF763FFFFF7C6FCFFF7ED
:101720001DFB29A000F017F92DA000F014F9FFF718
:10173000A7FB0446214635A000F00DF90020012149
:10174000034650220091019035A1374801F064FC16
:1017500000200121034628220091019033A1344842
:1017600001F05AFC00220A21084601F0C7F931496C
:10177000086008460068002804D12FA000F0EBF8AC
:1017800000201CBD334801231A46FF212D31009053
:1017900031A001F02DFE3449086008460068002899
:1017A0000BD001F079FC04460020034622460121BB
:1017B00000902D48006801F055FE01F0E5F802E0C8
:1017C000C820FFF72EFAFBE72D2D2D205254534F42
:1017D000207374617274696E67202D2D2D000000D6
:1017E00050414E474F20436F727465782D4D312024
:1017F0004672656552544F5320537461727420527F
:10180000756E2E2E2E2E2E2E0D0A00004A454445B2
:101810004320206964203D20307825780A000000AC
:101820007175657565000000D92500106C65640050
:10183000C51600109800003051756575653120435C
:101840007265617465204661696C2E2E2E2E2E2ED7
:101850000D0A0000A51200104175746F52656C6F7F
:10186000616454696D6572009400003010B50446DF
:10187000002C03D1302000F0EDFD10BD0A212046E0
:1018800000F03AF800BFF8E7F8B504460D4600202E
:10189000009020462946FFF70DF800900098FFF7CA
:1018A000E5FF2E2000F0D6FD0098FFF762F806460F
:1018B00022462B46FEF7E6FF04460D460022064B65
:1018C00020462946FFF758F80646FEF7F3FF00903A
:1018D0000098FFF7CBFFF8BD80842E4110B5044679
:1018E000002C03D1302000F0B5FD10BD10212046A2
:1018F00000F002F800BFF8E770B504460D46002C72
:1019000000D170BD29462046FEF77AFD06462946DD
:10191000FFF7F2FF29462046FEF772FD03A0465C62
:10192000304600F097FD00BFEBE700003031323366
:10193000343536373839616263646566000000000B
:1019400010B5044603E02078641C00F083FD207885
:101950000028F8D110BD0FB438B5002405A80090B8
:10196000049C69E0207809285CD00A2856D02528F4
:101970005CD1607864281FD00CDC532835D004DC9F
:10198000252841D0442843D117E0582835D0632872
:101990003ED108E0662818D069280FD0732823D0DC
:1019A000782835D128E000990A78091DD0B2009135
:1019B00000F050FD641C2FE000BF00BF009901C97A
:1019C0000091FFF753FF641C26E00098C01DC0087B
:1019D000C000009002684168009D083510460095DF
:1019E000FFF752FF641C17E000BF009901C9009186
:1019F000FFF7A6FF641C0FE000BF009901C900912A
:101A0000FFF76CFF641C07E0252000F023FD03E0D6
:101A1000207800F01FFD00BF00BF0BE00A2000F09F
:101A200019FD07E0092000F015FD03E0207800F023
:101A300011FD00BF00BF641C2078002892D10090E7
:101A400038BC08BC04B01847F8B505460E46174820
:101A5000076817480068001D00F0F0FD681C0028AA
:101A600008D1002E06D012480168091D114800F067
:101A700027FE1AE07C190E4800684460BC4207D279
:101A80000B480168091D0C48006800F0FEFD0CE0E1
:101A900007480168091D0948006800F0F6FD08487C
:101AA0000068844201D206480460F8BD1800003086
:101AB00004000030980100300C00003008000030B5
:101AC0003400003010B5044600F006FE20480068DF
:101AD000401C1F4908601F480068002808D11D48A5
:101AE00004600846006801280ED100F0F3F90BE00D
:101AF00019480068002807D116480068C06AE16AE2
:101B0000884201D81348046014480068401C1349F7
:101B100008601349E06A0968884202D91049E06AFE
:101B200008601422E16A51430E4A8818211D00F012
:101B3000C7FD00F0DFFD08480068002807D0054811
:101B40000068C06AE16A884201D200F027FE10BD39
:101B5000140000300400003020000030300000305D
:101B60001C000030E400003010B500F0B5FD114855
:101B7000006800281BD1104800F077FD0F4800F0E6
:101B800074FD0D480E4908600C480E49086000229B
:101B90000C21052000F0B2FF0649086008460068E5
:101BA000002804D008A10348006800F003FE00F0FC
:101BB000A1FD10BD48000030AC010030C001003074
:101BC0004000003044000030546D725100000000AD
:101BD00070B525E000F014FF14480068002801D11A
:101BE000012000E00020054601F08AFB002D17D1FE
:101BF00000F072FD0D48C068C468201D00F01EFD95
:101C00000B480068401E0A4908600A480068401EE8
:101C10000849086000F06EFD204600F063F800BF40
:101C2000044800680028D5D170BD00008401003050
:101C3000140000301000003070B504460D46206CD2
:101C400000280ED0216CE0684018E0606168E06810
:101C5000884201D32068E0602846226CE168FEF7E4
:101C600085FB70BDF8B504460F4615460020009070
:101C7000A66B206C002809D1206800282ED160684E
:101C800001F0B6FA00900020606027E0002D0FD12F
:101C90003946226CA068FEF769FB216CA0684018E9
:101CA000A0606168A068884218D32068A06015E031
:101CB0003946226CE068FEF759FB216CE068401A57
:101CC000E0602168E068884203D2216C6068401AB5
:101CD000E060022D02D1002E00D0761E701CA063A1
:101CE0000098F8BD10B50446206B00F017FD2046A3
:101CF00000F014FD10BD00000146094A1268126888
:101D0000002A01D1012200E000220A600A68002AAC
:101D100004D1034A1268D268106800E000207047BE
:101D20004000003030B5184B18484407640F002CB1
:101D300005D0C01DC008C000144C041B1B1B02466C
:101D4000134C22600024124D6C60D0180838C00873
:101D5000C000104C206000240E4D2D686C600D4DAD
:101D60002D682C601146441A4C600A4C24680C60A3
:101D7000094D4C682C60094D4C682C600124E40727
:101D8000074D2C6030BD0000F82A0000D40100305F
:101D900058000030600000306800003064000030FF
:101DA0006C00003000BFFFF713FF034800680128F4
:101DB000F9D900F0F3FCF6E7E4000030F8B5064688
:101DC0000D461746069C002D01D1246000E02760D7
:101DD000E66325640121204600F07EFF0020A06418
:101DE000F8BDFFB581B00F460A9E0C9C039A910086
:101DF000A522206BFEF7FBFA216B0398401E8000A2
:101E0000081800900098C008C00000900098400793
:101E1000400F002801D1012000E00020002802D15D
:101E200072B600BFFEE7002508E0795D2046343039
:101E30004155785D002800D102E06D1C052DF4D3DA
:101E400000BF002138200155052E00D30426E6628C
:101E5000E66300202064201D00F014FC20461830AA
:101E600000F010FC24610520801BA061646200204A
:101E70006064002148200155049A0199009800F0FF
:101E80009BFB20600B98002801D00B98046005B0E4
:101E9000F0BDFFB581B006460D4617460B9C002DE0
:101EA00001D0012000E00020002802D172B600BF5E
:101EB000FEE7002C0BD0FFF757FE2660A561E76117
:101EC000049820620A986062201D00F0DBFB05B0D8
:101ED000F0BD000010B5002406E0142161430E4A55
:101EE000881800F0C2FB641C052CF6D30B4800F0E8
:101EF000BCFB0B4800F0B9FB0A4800F0B6FB0A48EF
:101F000000F0B3FB094800F0B0FB04480849086042
:101F100003480849086010BDE40000304801003063
:101F20005C01003070010030840100309801003005
:101F3000080000300C00003010B50146164800E0E3
:101F4000006803688B42FBD3024643689B188B42B0
:101F500004D143684C681B19436001460A464B682C
:101F60009B180468A34211D10C4C03682468A34257
:101F700008D04B68046864681B194B6003681B68D1
:101F80000B6005E0054B1B680B6001E003680B600C
:101F9000884200D0016010BD580000306000003061
:101FA000F8B504460D4616461F46002000906560B1
:101FB0002461B5420CD8F01BA169884202D30120EC
:101FC000009011E0211D0948006800F05EFB0BE065
:101FD000BE4204D2BD4202D30120009004E0211D84
:101FE0000348006800F051FB0098F8BD4400003041
:101FF0004000003070B5054600F06EFBA86B00286D
:1020000001D1012400E0002400F074FB204670BDE3
:1020100070B5054600F060FBA86BE96B884201D102
:10202000012400E0002400F065FB204670BDF3B5FC
:1020300081B00D460198846C0027002C02D172B645
:1020400000BFFEE7A06BE16B884201D2012000E0F7
:102050000020002802D172B600BFFEE7A06BE16B42
:1020600088421FD2452006572A4601A92046FFF77D
:10207000F9FD0746701C00280FD1606A002801D1C5
:10208000012000E0002000280BD12046243001F080
:10209000F3F8002805D0012703E0701C41B2452069
:1020A000015500BF3846FEBDF8B505460F4613483A
:1020B0000068C068C468201D00F0C0FAE06901280B
:1020C00017D1A06941192B463A462046FFF768FF11
:1020D00000280ED0002003462A46014600902046E4
:1020E00001F0C0F90646002E02D172B600BFFEE72D
:1020F00000BF2046616A8847F8BD000040000030FC
:1021000070B586B060E0039800285DDB059C6069CF
:10211000002801D1012000E00020002802D1201D6C
:1021200000F08CFA02A800F0AFF80546039803000F
:10213000FFF772FA0A0A06082C2E4407092D2F48C9
:1021400000BF00BF00BF00BF0498A269811803460A
:102150002A462046FFF724FF002816D02046616A51
:102160008847E069012810D1002000900498A169F7
:10217000421800231946204601F074F90646002E45
:1021800002D172B600BFFEE700BF1CE000BF1AE03C
:1021900000BF0498A061A069002801D0012000E0E0
:1021A0000020002802D172B600BFFEE7A0694119E5
:1021B0002B462A462046FFF7F3FE04E0204600F0B7
:1021C000ADFA00E000BF00BF00231A4603A904488F
:1021D000006800F0BBFC002895D106B070BD00007F
:1021E00048000030F8B505460C4600F009FC68468A
:1021F00000F04AF806460098002822D1002C08D1A9
:10220000B54206D801F07CF831462846FFF74CFF6E
:1022100019E0002C08D00C4800680068002801D1A3
:10222000012000E000200446A91B22460748006860
:1022300000F0D6FA01F064F8002804D100F0AEFAFC
:1022400001E001F05DF8F8BD4400003048000030C6
:102250000B4909680968002901D1012100E000212A
:10226000002904D00021C943064A116006E0044950
:102270000968C968C868034A41681160704700006E
:10228000080000303400003070B5044600F004FF50
:10229000054607480068854204D200F021F8012075
:1022A000206001E00020206001480560284670BDE4
:1022B0005000003010B50020074908618861FF21F7
:1022C000F53106480068FEF79BF8401E0249486158
:1022D0000720086110BD000000E000E000000030B1
:1022E000FEB52BE020480068C06805681E480068FD
:1022F000C068C468201D00F0A1F92046616A8847C3
:10230000E06901281AD1A0694619AE4207D9666072
:102310002461211D1448006800F0B7F90EE0002088
:1023200003462A4601460090204601F09BF80746E6
:10233000002F02D172B600BFFEE700BF0A48006856
:102340000068002801D1012000E000200028C9D049
:102350000548006801900548006803490860034982
:1023600001980860FEBD00004000003044000030CD
:1023700007480068401C002801D1012000E000202F
:10238000002802D172B600BFFEE772B600BFFEE7BA
:102390005400003008B500BF6846FFF7ADFC0446A6
:1023A00020460099FFF71EFFFFF7AAFEF4E770B57D
:1023B000044600F091F9452005571FE0A06C002865
:1023C00008D000212046FFF732FE002814D000F08C
:1023D0004FFA11E0606A002801D1012000E00020DE
:1023E000002808D12046243000F046FF002803D002
:1023F00000F03EFA00E003E0681E45B2002DDDDC8F
:1024000000BF0021C9434520015500F073F900F0D9
:1024100063F94420055713E02069002801D1012009
:1024200000E0002000280AD12046103000F024FFF0
:10243000002801D000F01CFA681E45B200E001E05F
:10244000002DE9DC00BF0021C9434420015500F004
:1024500051F970BD10B504460A2C02D10D20FFF7CA
:10246000F9FF21460148FFF7B3F810BD00400050C6
:10247000F8B504460020009000F0C2FA4148006818
:10248000002801D1FFF74EFC3F480068204000289B
:1024900061D1002C15D008346007400F002810D0FF
:1024A0006007400F0821081A04196007400F002830
:1024B00001D1012000E00020002802D172B600BF47
:1024C000FEE7002C47D031480068844243D8304EA4
:1024D0003046056801E02E462D686868A04202D2A9
:1024E00028680028F7D127480068854233D0306833
:1024F00008300090286830606868001B102813D9E5
:102500002F197807400F002801D1012000E000209A
:10251000002802D172B600BFFEE76868001B786031
:102520006C603846FFF708FD184968680968081AA2
:10253000164908600846006816490968884203D2AF
:1025400012480068134908600F4968680968084321
:1025500068600020286000F0D3FE0098002801D1B8
:1025600000F080F800984007400F002801D10120BA
:1025700000E00020002802D172B600BFFEE70098FC
:10258000F8BD0000600000306C00003064000030D6
:10259000580000306800003006480068002806D067
:1025A0000449096808464030096C491C016001482B
:1025B0000068704704000030001F01231B06036001
:1025C000001F0160001F034B0360143802602038B5
:1025D00070470000712300100EB500BF002000906E
:1025E000019002901FE000230F4A69460F480068DF
:1025F00000F0ACFA0446012C12D104220CA168466A
:10260000FDF736FE002802D1FEF770FD08E0072234
:1026100008A16846FDF72CFE002801D1FEF70AFE4E
:102620000A2000F003F9DEE7DC0500009800003026
:10263000535049004D454D4F5259000001460A691B
:102640004B68886898608B68486858605068884212
:1026500001D188685060002008611068401E106039
:1026600010687047704770477047014608314160F5
:102670000021C943816001460831C1600161002128
:102680000160704700210161704710B502460B6878
:102690005C1C002C01D1106907E01046083000E0F6
:1026A0004068446824689C42FAD944684C604C688D
:1026B000A160886041600A611468641C146010BDE8
:1026C00042684A6093688B609368596091600861C2
:1026D00003685B1C0360704772B605480068401CC5
:1026E00003490860BFF34F8FBFF36F8F704700003F
:1026F0005400003008480068002802D172B600BFBC
:10270000FEE705480068401E034908600846006867
:10271000002800D162B670475400003070B50646FC
:102720003546002E35D0083D2C461A4960680968A8
:102730000840002801D0012000E00020002802D13C
:1027400072B600BFFEE72068002801D1012000E03A
:102750000020002802D172B600BFFEE70D49606874
:1027600009680840002814D02068002811D10949C0
:10277000606809688843606000F042F90649606853
:1027800009684018044908602046FFF7D5FB00F0AF
:10279000B7FD70BD6C000030640000300120000700
:1027A00003494860BFF34F8FBFF36F8F704700003E
:1027B00000ED00E010B5024600200BE0C300074C1E
:1027C000E358002B05D1C300E150C3001B195A6028
:1027D00002E0401C0828F1D300BF10BDA400003067
:1027E000F8B505460E4617462C46FFF775FF4421FF
:1027F0000857401C002802D10021442001554521E2
:102800000857401C002802D1002145200155FFF740
:1028100071FFA06B002805D13A463146204624308E
:1028200000F042F82046FFF7C2FDF8BD70B504463F
:102830000025002C14D00D480068002801D101208B
:1028400000E00020002802D172B600BFFEE700F0D1
:10285000D7F800212046FFF7F7F800F051FD0546B4
:10286000002D01D1FFF79AFF70BD00003C00003041
:1028700001200149086070472800003070B5044607
:102880000D46002C02D172B600BFFEE70548016874
:1028900018312046FFF7F9FE01212846FFF7D4F84A
:1028A00070BD00000400003070B505460E461446A9
:1028B000002D02D172B600BFFEE70748016818314B
:1028C0002846FFF7FDFE002C01D00026F6432146E6
:1028D0003046FFF7B9F870BD0400003070B505460A
:1028E0002C46002D39D01D49E06A0968C96A884222
:1028F00033D2A069C00FC007002805D1174800686F
:10290000C06A0521081AA0611422E06A5043144AE3
:1029100080186169814201D1012000E00020002877
:1029200017D0201DFFF78AFE0C480068C06AE062DD
:102930000C49E06A0968884202D90A49E06A0860DD
:102940001422E16A5143064A8818211DFFF7B8FE98
:1029500003E002480068C06AE06270BD0400003015
:10296000E40000301C000030002802D172B600BF25
:10297000FEE7034909680160024909684160704740
:102980002C000030180000301CB5164800210B4602
:102990003C220091019014A1154800F03DFB044633
:1029A000012C02D100F03AFD0446012C0DD172B683
:1029B0000020C0430F49086001200F490860002033
:1029C0000E49086000F07EF80AE0601C002801D083
:1029D000012000E00020002802D172B600BFFEE70F
:1029E0001CBD00003800003049444C450000000088
:1029F000A51D001034000030200000301800003009
:102A000002480068401C0149086070473C000030E3
:102A100070B526480068002803D0012024490860CA
:102A200043E000202249086022480068046B224DE0
:102A300029462068884208D16068884205D1A0688C
:102A4000884202D1E068884205D01A4801683431D2
:102A50000068FFF708FE1948016805E0002902D167
:102A600072B600BFFEE7491E14204843144A1058AE
:102A7000002801D1012000E000200028EED114221E
:102A80004A430F4BD01842685268426002460832EF
:102A90004368934202D14268526842604268D268F9
:102AA000044B1A600548016000BF70BD3C00003057
:102AB0002800003004000030A5A5A5A51C000030AA
:102AC000E400003010B50B48006AFF2109040843F8
:102AD000084908620846006AFF21090608430549BB
:102AE0000862FFF7E7FB002003490860FDF73AFBA7
:102AF000002010BD00ED00E054000030F7B582B0BA
:102B000005460E46002D01D0012000E000200028DF
:102B100002D172B600BFFEE7002E01D1002701E00E
:102B20002F46774338464C30FFF7A2FC0446002C72
:102B300009D020464C300190009431462846049B31
:102B4000019AFFF73BF9204605B0F0BDFFB585B00F
:102B500005460E46002004902C46002C02D172B689
:102B600000BFFEE7002E02D1206C002801D1012019
:102B700000E00020002802D172B600BFFEE700F09E
:102B800079FA002802D10798002801D1012000E03D
:102B90000020002802D172B600BFFEE700BFFFF799
:102BA0009BFDA06B01900198002837D0E768314663
:102BB0002046FFF741F80898002819D10198401ED7
:102BC000A0632068002802D1FFF7E6FC606020695E
:102BD000002801D1012000E00020002819D1204662
:102BE000103000F049FB002813D0FFF7D7FD10E0AC
:102BF000E760606A002801D1012000E00020002881
:102C000007D12046243000F037FB002801D0FFF721
:102C1000C5FDFFF76FFD012009B0F0BD0798002842
:102C200003D1FFF767FD0020F6E70498002804D1E0
:102C300002A8FFF799FE01200490FFF75BFDFFF764
:102C4000DFFEFFF749FD44210857401C002802D150
:102C500000214420015545210857401C002802D17D
:102C6000002145200155FFF745FD07A902A800F006
:102C700099F9002824D12046FFF7BCF9002819D083
:102C80002068002806D1FFF727FD6068FFF726FEC1
:102C9000FFF730FD204624300799FFF7EFFD20466F
:102CA000FFF785FB00F02CFB002800D077E7FFF74B
:102CB00075FD74E72046FFF77AFB00F021FB6EE715
:102CC0002046FFF774FB00F01BFB2046FFF792F94C
:102CD0000028EBD000209FE770B505460E462C4635
:102CE000002C02D172B600BFFEE7FFF7F5FC216CA5
:102CF000E06B48432168401860600020A0632068B2
:102D0000A060E06B401E216C484321684018E060E1
:102D10000021C9434420015545200155002E10D102
:102D20002069002801D1012000E00020002810D1F6
:102D30002046103000F0A0FA00280AD0FFF72EFD40
:102D400007E020461030FFF790FC20462430FFF7C4
:102D50008CFCFFF7CFFC012070BDFFB583B00646A9
:102D60001D46002002903446002C02D172B600BFEE
:102D7000FEE70498002802D1206C002801D1012030
:102D800000E00020002802D172B600BFFEE7022D4D
:102D900002D1E06B012801D1012000E000200028D1
:102DA00002D172B600BFFEE700F064F9002802D13C
:102DB0000598002801D1012000E00020002802D160
:102DC00072B600BFFEE700BFFFF786FCA06BE16BA9
:102DD000884201D3022D2BD12A4620460499FEF7C2
:102DE00041FF0746A06C002808D029462046FFF77F
:102DF0001EF9002817D0FFF7D1FC14E0606A002804
:102E000001D1012000E00020002808D12046243014
:102E100000F032FA002806D0FFF7C0FC03E0002FD4
:102E200001D0FFF7BBFCFFF765FC012007B0F0BD48
:102E30000598002803D1FFF75DFC0020F6E7029813
:102E4000002804D16846FFF78FFD01200290FFF7AC
:102E500051FCFFF7D5FDFFF73FFC44210857401C0C
:102E6000002802D100214420015545210857401C6B
:102E7000002802D1002145200155FFF73BFC05A9A0
:102E8000684600F08FF8002819D12046FFF7C0F8F7
:102E900000280ED0204610300599FFF7EFFC2046A1
:102EA000FFF785FA00F02CFA00288DD1FFF776FCA9
:102EB0008AE72046FFF77BFA00F022FA84E72046F3
:102EC000FFF775FA00F01CFA0020AFE7FFB583B0FA
:102ED000074615461E463C46002C02D172B600BF7E
:102EE000FEE70498002802D1206C002801D10120BF
:102EF00000E00020002802D172B600BFFEE7022EDB
:102F000002D1E06B012801D1012000E0002000285F
:102F100002D172B600BFFEE7FDF738F90190A06B51
:102F2000E16B884201D3022E34D145200157009134
:102F3000324620460499FEF795FE0098401C002872
:102F400020D1A06C00280AD031462046FFF76FF848
:102F500000281CD0002D1AD00120286017E0606ADC
:102F6000002801D1012000E0002000280FD12046D8
:102F7000243000F081F9002809D0002D07D001206D
:102F8000286004E00098401C41B245200155012012
:102F9000029001E0002002900198FDF7FBF80298F2
:102FA00007B0F0BD70B504460D46002C02D172B6D4
:102FB00000BFFEE7002D02D172B600BFFEE7FFF7AB
:102FC0008BFB134802682868401C002801D10026AA
:102FD00019E0104920680968884204D0606890426E
:102FE00001D801260FE06068101A2968884209D2CA
:102FF00028686168511A401A28602046FFF7B4FC1F
:10300000002600E00126FFF775FB304670BD00008A
:10301000180000302C000030FFB585B01746B8000E
:10302000FFF726FA0646002E0BD04C20FFF720FAB9
:103030000446002C01D0266304E03046FFF76EFB07
:1030400000E00024002C10D000220F990E986B464F
:1030500013C303923A46089B06990598FEF7C1FEF2
:103060002046FEF72FFD012501E00025ED4328460F
:1030700009B0F0BD06490968002901D1012006E028
:1030800004490968002901D1022000E000207047AE
:10309000200000303C000030014908687047000003
:1030A00018000030F8B5002000904648006800285D
:1030B00078D145480068451C43480560002D1CD167
:1030C000424800680068002801D1012000E000208B
:1030D000002802D172B600BFFEE73C4807683C48B2
:1030E00000683A4908603A4807603A480068401C5E
:1030F00038490860FFF7ACF800BF374800688542E0
:103100003DD300BF314800680068002801D101208C
:1031100000E00020002804D00020C0432E490860B1
:103120002CE02A480068C068C4686668B54202D2CC
:103130002948066022E0201DFFF780FAA06A0028D7
:1031400003D020461830FFF779FA2449E06A09686D
:10315000884202D92149E06A08601422E16A514399
:103160001F4A8818211DFFF7ABFA1E49E06A09685B
:10317000C96A8842C6D301200090C3E700BF19483E
:103180000068C06A1421484315490858012801D92C
:103190000120009014480068002801D1FFF764FA6C
:1031A00007E0FFE710480068401C0F490860FFF780
:1031B0005BFA0E480068002801D0012000900098BA
:1031C000F8BD00003C00003018000030080000305E
:1031D0000C0000302C000030340000301C000030A7
:1031E000E4000030040000302400003028000030EB
:1031F00070B505462C460026002D35D01B480068CA
:10320000844201D1012000E00020002802D172B6E2
:1032100000BFFEE7206C002802D172B600BFFEE7B7
:10322000206C401E2064E16BE06A88421CD0206C58
:10323000002819D1201DFFF701FAE06BE06205219B
:10324000E06A081AA0610A49E06A0968884202D95E
:103250000749E06A08601422E16A5143054A881868
:10326000211DFFF72DFA0126304670BD0400003005
:103270001C000030E400003070B50646F068C468F9
:10328000002C02D172B600BFFEE720461830FFF7CF
:10329000D5F915480068002813D1201DFFF7CEF995
:1032A0001249E06A0968884202D91049E06A086058
:1032B0001422E16A51430E4A8818211DFFF700FAD3
:1032C00004E0214618310B48FFF7FAF90A49E06A91
:1032D0000968C96A884204D90125012007490860A4
:1032E00000E00025284670BD3C0000301C00003086
:1032F000E40000307001003004000030280000308D
:1033000070B50024002632480068002802D172B649
:1033100000BFFEE7FFF7E0F92D480068401E2C498A
:1033200008600846006800284DD12A480068002837
:1033300049D022E02848C068C46820461830FFF70A
:103340007DF9201DFFF77AF92449E06A096888426F
:1033500002D92249E06A08601422E16A5143204AF6
:103360008818211DFFF7ACF91E49E06A0968C96A8F
:10337000884202D301201C490860174800680028D1
:1033800001D1012000E000200028D3D0002C01D082
:10339000FEF75EFF15480568002D0DD000BFFFF752
:1033A00081FE002802D001200F4908606D1E002D0B
:1033B000F5D100200D4908600B480068002802D0B4
:1033C0000126FFF7EBF9FFF795F9304670BD0000D5
:1033D0003C00003014000030700100301C00003050
:1033E000E4000030040000302800003024000030E9
:1033F000FFB583B005460E460C9F2820FFF738F82E
:103400000446002C07D00097019431462846069BBD
:10341000059AFEF73EFD204607B0F0BD1CB500241E
:10342000FEF7A2FB0A48006800280AD009480221DA
:10343000002350220091019007A10948FFF7ECFDFD
:103440000446002C02D172B600BFFEE720461CBD28
:10345000480000304C000030546D722053766300F9
:1034600095230010F0B585B004460D4616461F465C
:1034700000200390002C02D172B600BFFEE7154871
:103480000068002822D0009501960294062D15DAD6
:10349000FFF7F0FD022808D1002369460D480A9A7B
:1034A0000068FFF75AFC039010E000231A466946B3
:1034B00008480068FFF751FC039007E000233A46F4
:1034C000694604480068FFF701FD0390039805B0C2
:1034D000F0BD000048000030F8340010000000305B
:1034E000A4000000040100109C350010A40000306E
:1034F000743F0000200100104059730700000000D5
:1035000000000000000000000000000000000000BB
:1035100000000000000000000000000000000000AB
:10352000000000000000000000000000000000009B
:10353000000000000000000000000000000000008B
:10354000000000000000000000000000AAAAAAAAD3
:10355000000000000000000000000000000000006B
:103560000000000000000000080000000000000053
:10357000000000000000000000000000000000004B
:10358000000000000000000000000000000000003B
:0C3590000000000000000000000000002F
:04000005100000C126
:00000001FF
